:020000040800F2
:10000000F05D0224B1020008498000084D7C000820
:10001000458000089517000827930008000000009D
:1000200000000000000000000000000059830008EC
:10003000151D0008000000004D8000085B830008CB
:10004000CB020008CB020008CB020008CB0200085C
:10005000CB020008CB020008CB020008CB0200084C
:10006000CB020008CB020008CB0200089917000859
:10007000CB020008CB020008CB020008CB0200082C
:10008000CB020008CB020008CB020008CB0200081C
:10009000CB020008CB020008CB020008CB0200080C
:1000A000CB020008CB020008CB020008CB020008FC
:1000B000CB020008CB020008CB020008CB020008EC
:1000C000CB020008CB020008CB020008CB020008DC
:1000D000CB020008CB020008CB020008CB020008CC
:1000E000CB020008CB02000800000000CB02000891
:1000F000CB020008CB020008CB020008CB020008AC
:10010000CB020008CB020008CB020008CB0200089B
:1001100049850008CB020008CB020008CB0200088A
:10012000CB020008CB020008CB020008CB0200087B
:10013000CB020008CB020008CB020008CB0200086B
:1001400000000000000000000000000000000000AF
:10015000CB020008CB020008CB020008CB0200084B
:10016000CB020008CB020008CB020008CB0200083B
:10017000CB020008CB020008CB020008CB0200082B
:10018000CB020008CB020008CB020008CB0200081B
:10019000CB020008CB020008CB020008CB0200080B
:1001A000CB020008CB020008CB020008CB020008FB
:1001B000CB020008CB020008CB020008CB020008EB
:1001C000CB020008CB020008CB020008CB020008DB
:1001D000CB020008CB020008CB020008CB020008CB
:1001E000CB020008CB020008CB020008CB020008BB
:1001F000CB020008CB020008CB020008CB020008AB
:10020000CB020008CB020008CB020008CB0200089A
:10021000CB020008CB020008CB020008CB0200088A
:10022000CB020008CB020008CB020008000000004F
:10023000CB020008CB02000800000000CB0200083F
:10024000CB020008CB020008CB020008CB0200085A
:10025000CB020008CB020008CB020008CB0200084A
:10026000CB020008CB020008CB020008CB0200083A
:10027000CB020008CB020008CB02000800000000FF
:10028000CB020008CB020008CB02000800000000EF
:1002900000000000CB020008DFF810D000F008FBDF
:1002A000004800475DB60008AFF30080F05D02240F
:1002B0000648804706480047FEE7FEE7FEE7FEE700
:1002C000FEE7FEE7FEE7FEE7FEE7FEE745840008FF
:1002D000990200082DE9F05F0546002092469B46F2
:1002E00088460646814640241BE02846414647464C
:1002F000224600F0AAF853465A46C01A914110D33C
:1003000011461846224600F091F82D1A67EB0108B5
:100310004F4622460120002100F088F817EB000923
:100320004E41201EA4F10104DFDC484631462A4636
:100330004346BDE8F09FD2B201E000F8012B491E10
:10034000FBD270470022F6E710B513460A46044672
:100350001946FFF7F0FF204610BD10B5002200E05F
:10036000521C835C8C5CA34201D1002BF8D1D8B223
:10037000E1B2401A10BD30B504460020034600E04B
:100380005B1C934203D2E05CCD5C401BF8D030BDD7
:100390002DE9F04791460F4680460446002614F8A2
:1003A000015B2DB100F062F80068405DC007F6D136
:1003B0002B2D02D02D2D18D0641E4A4639462046DA
:1003C00000F058F827B13968A14201D1C7F8008080
:1003D00071054FF002040BD54042002803DD09F0FF
:1003E000CBF80460A007BDE8F08746F48066E4E738
:1003F0000028F8DA09F0C0F804606FF00040F2E776
:1004000030B50B46014600202022012409E021FAE4
:1004100002F59D4205D303FA02F5491B04FA02F5E1
:100420002844151EA2F10102F1DC30BD202A04DBB4
:10043000203A00FA02F1002070479140C2F12003F7
:1004400020FA03F3194390407047202A04DB203A36
:1004500021FA02F00021704721FA02F3D040C2F1E4
:100460002002914008431946704700000048704739
:10047000A4BA00082DE9F05F8246007800271546EF
:100480008B460AF10104B946302801D09DB113E032
:1004900014F8010B0127782803D0582801D045B162
:1004A0000AE00DB1102D07D10027102514F8010B1B
:1004B00002E0082500E00A250026B0460EE005FB14
:1004C000080005FB06F1012701EB10461FFA80F832
:1004D000B6F5803F00D3B94614F8010B294600F069
:1004E0000BFA0028EBDABBF1000F05D00FB1641E48
:1004F00000E05446CBF80040B9F1000F06D009F0F7
:100500003BF802210160C81EBDE8F09F48EA0640A2
:10051000FAE72DE9FE4F804681EA0300C00F0C4642
:10052000009021F0004123F00045B8EB0200A94102
:1005300005D24046214690461C460B46024623F013
:100540000040104347D0270DC7F30A00C3F30A51F8
:100550000290401A019040286BDAC3F3130040F474
:10056000801B0098924620B10023D2EB030A63EB74
:100570000B0B01985946C0F140025046FFF756FF59
:1005800006460D4650465946019A00F0A3F910EB75
:1005900008006141002487EA115284EAE7731A4394
:1005A00040D0009A62B3019A012A4FEA075215DC43
:1005B000001B61EB02014FF0004202EA0752CDE955
:1005C0000042001C41F5801132462B4600F0B1F983
:1005D00003B0BDE8F08F40462146F9E7001B61EB10
:1005E0000201001C41F5801300185B412018A2F5A0
:1005F000001747EB030140EAD570B6196D4111E0D1
:100600006D084FEA360645EAC0754FEA0752001BEF
:1006100061EB0201001C41F5801149084FEA3000EE
:100620000019514132462B4603B0BDE8F04F00F0AF
:1006300071B90098012240000023D0EB020263EB65
:10064000E073009821464FEAE074B8EB000061EBDC
:100650000401E9E783F000435BE781F0004158E7DC
:100660002DE9FE4F81EA030404F0004421F000412B
:1006700000944FF0000B23F0004350EA01045ED0D9
:1006800052EA03045BD0C3F30A54C1F30A552C4465
:10069000A4F2F3340194A0FB0254C1F3130141F41A
:1006A0008011C3F3130343F4801301FB024400FBE6
:1006B000034E840A970A44EA815447EA8357A4FB0D
:1006C000076802958D0A05FB07854FEA932C04FB0A
:1006D0000C542705029D4FEA065847EA1637B5EB3A
:1006E00008056EEB070C870E920E47EA811742EA67
:1006F0008312A7FB0201B6EB0B0164EB00042B0D88
:1007000043EA0C335E1844EB1C50DA465146E7FBD3
:100710000201C5F313044FEA0B3343EA14534FEAC3
:100720000432019C43EA0603A4F10C040294009CE9
:10073000CDE900B400F0FDF803B0BDE8F08F002073
:100740000146F9E72DE9F04D81EA030404F0004B7E
:1007500021F0004514464FF0000A23F0004150EA12
:10076000050220D054EA01021DD0C5F30A57024603
:10077000C5F31303C1F31300C1F30A5640F4801507
:1007800043F48013A7EB0608101BD64608F2FD3889
:1007900073EB050002D308F1010801E092185B41F8
:1007A000B8F1000F03DA00200146BDE8F08D00200B
:1007B0004FF48011064684460EE0171B73EB0507C5
:1007C00005D3121B63EB050306434CEA010C4908F1
:1007D0004FEA300092185B4150EA0107EDD152EA2E
:1007E000030012D082EA040083EA0501084305D021
:1007F000101BAB4106D20122002306E000224FF07D
:10080000004302E06FF0010253101AEB06004CEBBC
:10081000085110EB0A0041EB0B01BDE8F04D00F070
:1008200079B870B521F0004303430CD0C1F30A55E9
:100830000024D5EB040564EB0403D617AD1AB341CD
:1008400002DB0020014670BD201841EB025170BD53
:10085000C1F30A52C1F3130140F2FF3341F4801196
:100860009A4202DA00200146704740F233439A422E
:10087000A2F2334202DC5242FFF7E7BDFFF7D6BDDA
:1008800030B5041E71F1000404DB4FF00044404217
:1008900064EB0101141E73F1000405DB1C464FF0EC
:1008A0000043524263EB0403994208BF904230BDBB
:1008B000064C074D06E0E06840F0010394E80700AD
:1008C00098471034AC42F6D3FFF7EAFCA8BA000808
:1008D000C8BA0008202A06DBCB17203A41FA02F0FA
:1008E00043EAE07306E041FA02F3D040C2F120028D
:1008F00091400843194670473A2800D2303820F01A
:100900002002412A01D3A2F13700884201D34FF0DF
:10091000FF30704710B5141E73F1000408DA401C54
:1009200041F1000192185B411A4301D120F001000E
:1009300010BD2DE9F04D92469B4611B1B1FA81F2FE
:1009400002E0B0FA80F220329046FFF76FFD0446D5
:100950000F4640EA0A0041EA0B0153465A46084353
:1009600013D0114653EA010019D0C8F14002504695
:10097000FFF76BFD05460E46504659464246FFF7C7
:1009800055FD084305D0012004E020463946BDE866
:10099000F08D0020054346EAE0762C4337430A9861
:1009A0006305E40AA0EB08000022FD0A44EA47546C
:1009B0000A3002D500200146E9E701051019694116
:1009C000DDE9084500196941BDE8F04DA2E770B5C1
:1009D00004460D46A1B2002008F020FDA9B2012076
:1009E00008F01CFD70BD70B504460D46A1B2002094
:1009F00008F042FDA9B2012008F03EFD70BD0000E4
:100A000038B505460020009000EE105AB8EE400BB5
:100A10009FED221B20EE010BBCEEC00B10EE104A26
:100A2000E0B28DF80300200A8DF80200200C8DF84A
:100A30000100200E8DF8000001231A4A19460020FB
:100A400008F074FC01236A460421084608F06EFC95
:100A50000123154A1946002008F068FC01236A4664
:100A60000421084608F062FC0123104A19460020C0
:100A700008F05CFC01236A460421084608F056FC95
:100A800001230B4A1946002008F050FC03236A4654
:100A90000421084608F04AFC38BD000095D626E837
:100AA0000B2E21400000002401000024020000243D
:100AB0000300002470B504464E492068884203D0E4
:100AC0004D492068884208D14C48006800F4403005
:100AD00008B1012009E0002007E04948006800F45F
:100AE000403008B1012000E00020B8B105F0B6FDAB
:100AF00005466068B0F5803F06D0B0F5003F04D0F1
:100B0000B0F5403F08D105E000BF6068000CB5FBC0
:100B1000F0F502E0AD0800E000BF2AE04FF400204D
:100B200004F0B0FA05466068C0F31101F9B9801409
:100B30000C281CD2DFE800F01B060708090A0B117D
:100B40001315171900BF00BF00BF00BF00BF6068CA
:100B5000800C4000B5FBF0F50AE02D0908E06D09B6
:100B600006E0AD0904E0ED0902E02D0A00E000BF57
:100B700000BF03F0FBFD41F20301884210D8214879
:100B8000854206D92068806840F4807021688860BA
:100B90002FE02068806820F480702168886028E059
:100BA0006D081948854206D82068806820F4407096
:100BB000216888601DE01548854208D82068806853
:100BC00020F4407040F480702168886011E0104883
:100BD000854208D82068806820F4407040F4007096
:100BE0002168886005E02068806840F440702168D2
:100BF000886070BD002002400021024008230240AE
:100C000008630258002D3101105E5F0020BCBE0059
:100C100040787D0170B50546AC6B606D00F050000A
:100C200098BB606D40F4007060652068006800F05B
:100C30000800A8B1206807F0C1F810B32068C068A8
:100C400000F40050E8B9606D20F480706065606D5C
:100C500000F48050A8B9606D40F00100606510E0BC
:100C60002068C06800F0030058B9606D20F48070FF
:100C70006065606D00F4805018B9606D40F001004F
:100C80006065204601F028FC0CE0FFE7606D00F095
:100C9000100018B1204601F02CFC03E0E06CC16CA0
:100CA0002846884770BD70B50546AC6B606D40F056
:100CB00040006065A06D40F00400A065204601F092
:100CC00018FC70BD70B50446A56B284601F010FCF9
:100CD00070BD000070B50446206807F051F8064664
:100CE000206807F052F898B396BB2068806800F03F
:100CF0000D0001280AD1206881681A4A1140891C18
:100D0000816000BF03202168086009E0606D40F049
:100D100010006065A06D40F00100A065012070BD6D
:100D200003F02AFD054614E003F026FD401B0228CF
:100D30000FD92068806800F0010050B1606D40F06C
:100D400010006065A06D40F00100A0650120E6E79D
:100D500005E02068806800F001000028E4D1002050
:100D6000DDE70000C0FFFF7F70B50446206807F094
:100D70000CF8002851D1206880682949084048B102
:100D8000606D40F010006065A06D40F00100A0654E
:100D9000012070BD206806F0E1FF03F0EDFC054680
:100DA000204A2168914203D01F4A2168914201D113
:100DB0001E4900E01E49084606F0D8FF06461A49BB
:100DC0002068884201D1174800E0206821688842E5
:100DD00000D00EBB1AE0206806F0D7FF10B92068DB
:100DE00006F0BCFF03F0C8FC401B02280ED92068A7
:100DF000006800F0010048B9606D40F010006065C7
:100E0000A06D40F00100A0650120C2E720680068E5
:100E100000F001000028DED000BF0020B9E700008C
:100E20003F000080002002400021024000230240D9
:100E30000063025830B52DED028B83B005460024C7
:100E400006F020FF2846FFF7DBFD5A210020FFF7C0
:100E5000CAFD40F2FF310846FFF7B9FD142003F048
:100E600067FB284600F08CFA4FF480515948FFF791
:100E700069FA10E04FF480625649574801F000F8D3
:100E800002E0142003F054FB544800780028F8D006
:100E90000020524908704F48D0F8D0074FF6FF7134
:100EA00001EA10400028E5D04FF480514C48FFF78C
:100EB00049FA002419E0474830F8240080B200EED7
:100EC000100AB8EE400ADFED470A30EE600ADFEDA7
:100ED000460A20EE200ADFED450A80EE201A44483B
:100EE00000EB840080ED001A641CB4F5806FE2D33F
:100EF000404841490A234FF48062CDE90010384947
:100F00003B480AF0E7F9002412E0394800EB84007E
:100F100090ED000ADFED390A80EE201AB7EEC10A23
:100F2000B0EE408B53EC182B35A008F0E1FA641CAE
:100F3000B4F5806FE9D34FF480512948FFF702FAE6
:100F400000241CE0234850F824004FF6FF7101EA0A
:100F5000104000EE100AB8EE400ADFED220A30EE33
:100F6000600ADFED210A20EE200ADFED200A80EE84
:100F7000201A1F4800EB840080ED001A641CB4F5B1
:100F8000806FDFD31B481C490A234FF48062CDE9F0
:100F90000010134916480AF09DF9002412E0144885
:100FA00000EB840090ED000ADFED140A80EE201AB9
:100FB000B7EEC10AB0EE408B53EC182B10A008F02E
:100FC00097FA641CB4F5806FE9D303B0BDEC028BD3
:100FD00030BD00001C0C00241C5C002434000024E4
:100FE0001C2C00240000004733335340000080478E
:100FF0001C1C00241C4C00241C3C002400008044C9
:1010000025660D0A0000000030B52DED068B83B07B
:101010000546002406F036FE2846FFF7F1FC5A216B
:101020000020FFF7E0FC40F2FF310846FFF7CFFC5D
:10103000142003F07DFA42F2107000F0A1F94FF491
:1010400080516348FFF77EF910E04FF480626049F9
:10105000604800F015FF02E0022003F069FA5E48E4
:1010600000780028F8D000205B4908705848D0F874
:10107000D0074FF6FF7101EA10400028E5D04FF489
:1010800080515648FFF75EF9002419E0504830F8C7
:10109000240080B200EE100AB8EE400ADFED500ADC
:1010A00030EE600ADFED4F0A20EE200ADFED4E0A37
:1010B00080EE201A4D4800EB840080ED001A641C7D
:1010C000B4F5806FE2D34A484A490A234FF480625C
:1010D000CDE90010414945480AF0FCF8434890ED3D
:1010E000000A4548D0ED000A70EE608A4FF4805146
:1010F0003A48FFF727F900241CE0354850F824004F
:101100004FF6FF7101EA104000EE100AB8EE400AF7
:10111000DFED330A30EE600ADFED320A20EE200AFE
:10112000DFED310A80EE201A304800EB840080EDBC
:10113000001A641CB4F5806FDFD32D482D490A23B3
:101140004FF48062CDE90010244928480AF0C2F823
:10115000264890ED000A2948D0ED000A30EE608A5A
:1011600068EEA80A48EE080AB0EE001A60EE810A9E
:10117000B0EE600A09F047F9B0EE409AB7EEE81A0F
:10118000B1EE480AB7EEC00A08F0FAFA9FED1C1B50
:1011900080EE012B9FED1C0B22EE000BF7EEC09BA7
:1011A0009FED1B0AC9EE000AB7EEE00AB0EE40ABB5
:1011B00053EC1A2B17A008F09BF9B7EEE90A53EC91
:1011C000102B14A008F094F903B0BDEC068B30BDD1
:1011D0001C0C00241C5C0024340000241C2C002463
:1011E0000000004733335340000080471C1C00249C
:1011F0001C4C00241C3C00243C0000244000002423
:1012000000000000FA210940000000000080664054
:1012100000A0254525660D0A000000001CB506F05B
:1012200031FD0024142003F083F942F2107000F025
:10123000A7F84FF480514648FFF784F810E04FF4C8
:1012400080624349434800F01BFE02E0022003F0A5
:101250006FF9414800780028F8D000203E49087016
:101260003B48D0F8D0074FF6FF7101EA1040002844
:10127000E5D04FF480513948FFF764F8002419E0B5
:10128000334830F8240080B200EE100AB8EE400A6D
:10129000DFED330A30EE600ADFED320A20EE200A7D
:1012A000DFED310A80EE201A304800EB840080ED3B
:1012B000001A641CB4F5806FE2D32D482D490A232F
:1012C0004FF48062CDE90010244928480AF002F862
:1012D000264890ED000A284880ED000A4FF480511E
:1012E0001E48FFF72FF800241CE0194850F824008E
:1012F0004FF6FF7101EA104000EE100AB8EE400A06
:10130000DFED170A30EE600ADFED160A20EE200A44
:10131000DFED150A80EE201A144800EB840080ED02
:10132000001A641CB4F5806FDFD3114811490A23F9
:101330004FF48062CDE9001008490C4809F0CAFF5B
:101340000A4890ED000A0D4880ED000A1CBD00001F
:101350001C0C00241C5C0024340000241C2C0024E1
:101360000000004733335340000080471C1C00241A
:101370001C4C00241C3C00243C00002440000024A1
:1013800030B5AFB00546FD48854201D30C242AE0B4
:10139000FB48854201D30B2425E0FA48854201D35E
:1013A0000A2420E04CF25030854201D309241AE08F
:1013B00042F21070854201D3072414E041F28830D4
:1013C000854201D306240EE0B5F57A7F01D30424CB
:1013D00009E0B5F5FA7F01D3032404E0642D01D3BD
:1013E000012400E00024E848006884427ED0BC214B
:1013F0006846FEF7A7FFE548FFF76CFCE448FFF7F7
:1014000069FCE1480460052003F092F80E2C6ED2CE
:10141000DFE804F007223D587895B2CEEFEDECEB13
:10142000EAE94FF40020009019200990A4210A91C4
:1014300080210D9148022890684604F0CDF94FF4C0
:101440002010D2494860D2494860D04801F052F893
:10145000CF4801F04FF88DE14FF4002000901920A3
:101460000990A4210A9180210D9148022890684694
:1014700004F0B2F94FF41010C4494860C449486000
:10148000C24801F037F8C24801F034F872E14FF475
:101490000020009019200990A4210A9180210D912B
:1014A00048022890684604F097F94FF40010B749B5
:1014B0004860B7494860B54801F01CF8B44801F0ED
:1014C00019F857E14FF400200090192009904FF4CB
:1014D000A0710A9164210D914FF4803028906846E4
:1014E00004F07AF94FF40010A84901E044E126E144
:1014F0004860A7494860A54800F0FCFFA44800F0F8
:10150000F9FF37E14FF400200090192009904FF4C3
:10151000A0710A9164210D914FF4803028906846A3
:1015200004F05AF94FF4E01098494860984948602F
:10153000964800F0DFFF964800F0DCFF1AE14FF418
:1015400000200090192009904FF4A0710A916421A5
:101550000D914FF480302890684604F03DF94FF427
:1015600080108A4948608A494860884800F0C2FF74
:10157000874800F0BFFFFDE04FF4002000901920E5
:10158000099096210A914B210D914FF480302890BB
:10159000684604F021F94FF480207C4948607C497A
:1015A00048607A4800F0A6FF794800F0A3FFE1E028
:1015B0004FF40020009019200990C8210A914B2176
:1015C0000D914FF480302890684604F005F9002012
:1015D0006E4948606E4948606C4800F08BFF6C486B
:1015E00000F088FFC6E08FE072E056E039E01CE0D2
:1015F000FFE74FF400200090192009904FF49671F6
:101600000A9132210D914FF480302890684604F001
:10161000E3F800205D4948605D4948605B4800F0A0
:1016200069FF5B4800F066FFA4E04FF400200090E3
:1016300019200990C8210A9105210D914FF480309D
:101640002890684604F0C8F84FF400204F494860DD
:101650004F4948604D4800F04DFF4D4800F04AFFAB
:1016600088E04FF40020009019200990C8210A91C9
:1016700005210D914FF480302890684604F0ACF8B5
:101680004FF4802041494860414948603F4800F09C
:1016900031FF3F4800F02EFF6CE04FF40020009037
:1016A00019200990C8210A9105210D914FF480302D
:1016B0002890684604F090F8002034494860344986
:1016C0004860324800F016FF314800F013FF51E047
:1016D0004FF400200090192009904FF4B4710A9142
:1016E00005210D914FF480302890684604F074F87D
:1016F00000202649486026494860244800F0FAFE48
:10170000234800F0F7FE35E04FF400200090192048
:101710000990C8210A9105210D914FF4803028903D
:10172000684604F059F80020184948601849486094
:10173000164800F0DFFE164800F0DCFE1AE04FF419
:101740000020009019200990C8210A9105210D91CF
:101750004FF480302890684604F03EF800200B4992
:1017600048600B494860094800F0C4FE084800F092
:10177000C1FE00BF00BF00BF2FB030BD20A10700D9
:10178000400D0300A0860100380000241C5C0024EA
:10179000805C002400BFFEE710B5024801F0CCFCDD
:1017A00010BD0000E45C00240146374A08689042FE
:1017B00049D0354A18320868904244D0324A303213
:1017C000086890423FD0304A4832086890423AD088
:1017D0002D4A60320868904235D02B4A783208682A
:1017E000904230D0284A9032086890422BD0264A46
:1017F000A8320868904226D0244A0868904222D035
:10180000224A1832086890421DD0204A30320868B7
:10181000904218D01D4A48320868904213D01B4AA3
:101820006032086890420ED0184A783208689042B8
:1018300009D0164A90320868904204D0134AA83260
:101840000868904201D1012000E00020B0B10A7880
:10185000103A1823B2FBF3F000F007020C4B9A5C2D
:10186000CA65032805D90A686FF30902121D8A6543
:1018700003E00A686FF309028A6503E0086820F054
:10188000FF008865886D7047100002401004024018
:1018900096B7000810B502682B4C0368A34222D00B
:1018A000294C14340368A3421DD0274C2834036804
:1018B000A34218D0244C3C340368A34213D0224CDA
:1018C00050340368A3420ED01F4C64340368A34213
:1018D00009D01D4C78340368A34204D01A4C8C34D0
:1018E0000368A34201D1012300E000238BB10378F8
:1018F000083B1424B3FBF4F1144B03EB81030366A0
:10190000124B8033436601F01F040123A34083661A
:1019100018E00378103B1824B3FBF4F10C4B9A4207
:1019200004D80B4BA83B9A4200D30831094B03EB78
:1019300081030366074B8033436601F01F040123D4
:10194000A340836610BD0000085402580058025896
:10195000B8040240000802400179A9B3082940D820
:10196000204B02689A4222D01E4B143302689A42DE
:101970001DD01C4B283302689A4218D0194B3C33B7
:1019800002689A4213D0174B503302689A420ED025
:10199000144B643302689A4209D0124B78330268C0
:1019A0009A4204D00F4B8C3302689A4201D1012233
:1019B00000E000224AB14A1E0B4B03EB8202C266D2
:1019C000094A4032026708E00BE04A1E074B03EB6E
:1019D0008202C266054A403202674A1E01239340D2
:1019E00043677047085402580059025800090240E2
:1019F000014600208A69D2B98A6A32B1012A0DD023
:101A0000022A03D0032A10D10EE000BFCA6A02F0F6
:101A10008072B2F1807F00D1012007E0CA6AB2F182
:101A2000C07F00D1012001E000E000BF36E08A69FC
:101A3000B2F5005F1BD18A6A32B1012A07D0022AAF
:101A400003D0032A11D10AE000BF01200EE0CA6AC8
:101A500002F08072B2F1807F00D1012006E0CA6AF4
:101A6000B2F1C07F00D1012000E000BF16E08A6A19
:101A700032B1012A05D0022A04D0032A0CD103E096
:101A800000BF00BF012008E0CA6A02F08072B2F114
:101A9000807F00D1012000E000BF00BF7047000040
:101AA000F0B5856D846D984F0668BE4270D0964F34
:101AB00018370668BE426BD0934F30370668BE4277
:101AC00066D0914F48370668BE4261D08E4F60376E
:101AD0000668BE425CD08C4F78370668BE4257D04D
:101AE000894F90370668BE4252D0874FA8370668A4
:101AF000BE424DD0854F0668BE4249D0834F18374D
:101B00000668BE4244D0814F30370668BE423FD09F
:101B10007E4F48370668BE423AD07C4F6037066831
:101B2000BE4235D0794F78370668BE4230D0774F05
:101B300090370668BE422BD0744FA8370668BE4265
:101B400026D0734F0668BE4222D0714F1437066804
:101B5000BE421DD06E4F28370668BE4218D06C4F6B
:101B60003C370668BE4213D0694F50370668BE4204
:101B70000ED0674F64370668BE4209D0644F78378D
:101B80000668BE4204D0624F8C370668BE4201D15F
:101B9000012600E000263EB1D0E919767E60C66ECF
:101BA00016B1D0E91C767E60574F0668BE4249D018
:101BB000554F18370668BE4244D0534F3037066839
:101BC000BE423FD0504F48370668BE423AD04E4FD3
:101BD00060370668BE4235D04B4F78370668BE4244
:101BE00030D0494F90370668BE422BD0464FA837B9
:101BF0000668BE4226D0454F0668BE4222D0434FFB
:101C000018370668BE421DD0404F30370668BE42C6
:101C100018D03E4F48370668BE4213D03B4F60375E
:101C20000668BE420ED0394F78370668BE4209D0EA
:101C3000364F90370668BE4204D0344FA837066846
:101C4000BE4201D1012600E00026DEB190F85C60C2
:101C500006F01F073F26BE40AE600668366826F4D1
:101C6000802607683E60066873608668402E04D14F
:101C70000668B2600668F16044E00668B160066814
:101C8000F2603FE0224F0668BE4222D0204F143758
:101C90000668BE421DD01E4F28370668BE4218D0C7
:101CA0001B4F3C370668BE4213D0194F50370668A9
:101CB000BE420ED0164F64370668BE4209D0144F9C
:101CC00078370668BE4204D0114F8C370668BE4292
:101CD00001D1012600E00026A6B190F85C6006F074
:101CE0001F070126BE406660066873608668402E46
:101CF00004D10668B2600668F16003E00668B1606E
:101D00000668F260F0BD00001000024010040240BE
:101D100008540258704772B600BFFEE72DE9F04341
:101D200099B004460E464FF00008306800B100BF7D
:101D300000BF94F85000012803D1022019B0BDE87B
:101D4000F083012084F8500000BF00201590169009
:101D500046492068884202D14548009001E00020B1
:101D60000090009850B9606D40F02000606500BFA1
:101D7000002084F8500000BF0120DFE7009806F043
:101D800018F80746206806F014F8002861D1002FE3
:101D90005FD136492068884203D03549206888429F
:101DA00001D1344800E034480546306858B3A8688B
:101DB00020F4404071680843A8602C49206888429C
:101DC00003D02B492068884201D12A4800E02A48E4
:101DD0002849884209D1254805F0DCFF814624487E
:101DE00005F0D8FF49EA000002E0244805F0D2FFE0
:101DF00070BBB16830680843A96840F61F72914310
:101E00000843A8602BE0A86820F44040A860174968
:101E10002068884203D016492068884201D11548BD
:101E200000E015481349884209D1104805F0B2FF77
:101E300081460F4805F0AEFF49EA000002E00F4876
:101E400005F0A8FF20B9A86840F61F718843A86074
:101E500005E0606D40F0200060654FF0010800BFB4
:101E6000002084F8500000BF404667E70020024091
:101E70000021024000230240006302580060025823
:101E80002DE9F0419AB004460E461746206805F049
:101E900090FF18B102201AB0BDE8F08100BF94F89D
:101EA0005000012801D10220F5E7012084F85000FC
:101EB00000BF0020169017902F492068884202D159
:101EC0002E48019001E000200190019850B9606D0A
:101ED00040F02000606500BF002084F8500000BF83
:101EE0000120D8E72046FEF73FFF05461DB901A8AF
:101EF000FEF73AFF0546BDBB606D40F601618843C1
:101F000040F4807060650020A0651D48E16CC863E6
:101F10001C48E16C08641C48E16CC86416492068E0
:101F2000884203D015492068884201D1174800E053
:101F3000174880461C202168086000BF002084F8F4
:101F4000500000BF2068406840F0100021684860E1
:101F50003B46324608F10C01E06C02F0F9F8054608
:101F6000206805F035FF05E0FFE700BF002084F89A
:101F7000500000BF28468EE70020024000210240AA
:101F8000150C0008C50C0008A70C0008002302402F
:101F9000006302582DE9F84F04460D464FF0000A41
:101FA0000020009094F83800012800D100E000BF24
:101FB000F849E868884200D00EE0F7492068884276
:101FC00000D100BFF5492068884200D100BFF44924
:101FD0002068884200D100BF00BF94F8500001285B
:101FE00002D10220BDE8F88F012084F8500000BF24
:101FF000206805F0D9FE00287ED12068C1692868D4
:10200000C0F3130018B92868C0F3846004E028689E
:1020100090FAA0F0B0FA80F000F01F02012090408A
:1020200001432068C1612168D5E9002001F1300C2D
:10203000C0F3012B0CEB8B03D3F800C000F01F0E94
:102040004FF01F0B0BFA0EFB2CEA0B0C00F01F0BD2
:10205000C2F3846E0EFA0BFE4CEA0E0CC3F800C0FD
:1020600000BF206805F0A0FE8146206805F083FED1
:102070008046B9F1000F6FD1B8F1000FFBD1AA680B
:102080002968206805F0ACFEC648006800F0704082
:10209000B0F1805F07D168692168C968C1F3820126
:1020A0004900884014E02068C06800F0100038B98A
:1020B00068692168C968C1F382014900884007E066
:1020C00068692168C96801F01001890849008840E1
:1020D00007462869042840D020682A68296900F149
:1020E000600C0CEB8103D3F800C00CF0004C02F044
:1020F000F84B4BEA070B00E0CCE14CEA0B0CC3F8C1
:1021000000C000BF20686A7E2969012A01D1D20778
:1021100000E00022134600F1600C0CEB8102D2F8C3
:1021200000C02CF0004C4CEA030CC2F800C000BF09
:1021300020682B7E2969012B01D1DB0200E00023FE
:102140001A46036923F4F04301F01F0C02FA0CFC59
:1021500043EA0C03036100BF37E02068006E00F023
:10216000F8402978B0EB816F05D12068006E20F02F
:102170000040216808662068406E00F0F840297829
:10218000B0EB816F05D12068406E20F000402168DF
:1021900048662068806E00F0F8402978B0EB816FC7
:1021A00005D12068806E20F0004021688866206894
:1021B000C06E00F0F8402978B0EB816F05D120683F
:1021C000C06E20F000402168C866206805F0DDFD83
:1021D000002872D12068EA682968D0F8C030C1F3BD
:1021E000130C23EA0C0302F0180BDFF8BCC12CFA25
:1021F0000BFC0CEA010C43EA0C03C0F8C03000BF32
:102200006449E86888427DD12B68C3F313031BB986
:102210002B68C3F3846304E02B6893FAA3F3B3FA47
:1022200083F35B1C03F01F03092B3ED82B68C3F319
:1022300013031BB92B68C3F3846304E02B6893FA80
:10224000A3F3B3FA83F35B1C03F01F034FF0010CFD
:102250000CFA03FC2B68C3F313031BB92B68C3F3FD
:10226000846304E02B6893FAA3F3B3FA83F35B1C53
:1022700003F01F034CEA836C2B68C3F313031BB9F1
:102280002B68C3F3846304E02B6893FAA3F3B3FAD7
:1022900083F35B1C03F01F0303EB43034FF0000BBE
:1022A0004BEA03534CEA030341E02B68C3F31303E7
:1022B00023B92B68C3F3846305E0A9E02B6893FA84
:1022C000A3F3B3FA83F35B1C03F01F034FF0010C7D
:1022D0000CFA03FC2B68C3F313031BB92B68C3F37D
:1022E000846304E02B6893FAA3F3B3FA83F35B1CD3
:1022F00003F01F034CEA836C2B68C3F313032BB961
:102300002B6800E018E0C3F3846304E02B6893FAC1
:10231000A3F3B3FA83F35B1C03F01F030A3B03EB45
:1023200043034FF0007B4BEA03534CEA0303194687
:10233000AA68206805F054FD286800F000400028D5
:1023400066D0154A2168914203D0144A216891420F
:1023500001D1164900E016490846816801F0E0768F
:1023600000BF0D492068884203D00C49206888428C
:1023700001D10E4800E00E480C4988421AD10648A7
:1023800005F003FD8346054805F0FFFC4BEA00001D
:1023900013E000000000FF4700200240002102403F
:1023A000006002580010005CFFFF0F000023024095
:1023B000006302583E4805F0E8FCE8BB3D49286848
:1023C000884226D106F4000018BB394920688842AB
:1023D00066D1394B22689A4203D0384B22689A4220
:1023E00001D1374A00E0374A104646F4000105F0B3
:1023F0000BFD354800683549B0FBF1F0401C40004A
:10240000009002E00098401E009000980028F9D14A
:1024100046E02F492868884219D106F08070B0B98B
:102420002349206888423BD1234B22689A4205D039
:10243000224B22689A4200E025E001D1204A00E0C8
:10244000204A104646F0807105F0DEFC28E0214964
:102450002868884224D106F4800008BB144920680B
:1024600088421DD1144B22689A4203D0134B226834
:102470009A4201D1124A00E0124A104646F4800105
:1024800005F0C2FC0CE0606D40F0200060654FF08C
:10249000010A05E0606D40F0200060654FF0010A20
:1024A00000BF002084F8500000BF50469AE50000AD
:1024B00000600258000084CB00200240002102404E
:1024C000002302400063025854000024400D030022
:1024D000000052C70000B8CF034A0168914202D100
:1024E0000121024A1170704700200240340000248C
:1024F000704770472DE9F84F04464FF0000900205F
:10250000009014B90120BDE8F88FE06818B1207F71
:10251000012800D100BF606D30B9204600F030F9CD
:102520000020A06584F8500020688168C1F34071E4
:1025300031B120688168874A1140816000BF00BFC7
:10254000206805F02CFCA8B920688168824A1140F7
:1025500041F08051816000BF804800688049B0FB35
:10256000F1F0401C009002E00098401E009000989E
:102570000028F9D1206805F012FC48B9606D40F0E0
:1025800010006065A06D40F00100A0654FF00109EA
:10259000206805F009FC0646606D00F01000002878
:1025A0007ED1002EFCD1606D20F4807040F00200DE
:1025B0006065206805F0E9FB78BB6A4920688842BD
:1025C00003D069492068884201D1684800E0684822
:1025D0006649884209D1634805F0D7FB82466248C4
:1025E00005F0D3FB4AEA000002E0624805F0CDFBAB
:1025F00098B95C4B22689A4203D05B4B22689A429E
:1026000001D15A4A00E05A4A10466168826822F4B1
:102610007C120A43826000BF00BF02F0A7F841F2BB
:10262000030188420ED9A06810280BD1607D216B70
:1026300041EA4030A168084340F00C01207F41EAA4
:10264000004508E0607D216B41EA4030A168084305
:10265000217F40EA0145207F012803D1208C401EC4
:1026600045EA4045606A28B1A08C00F47870A16A00
:10267000084305432068C0683F4908402843216853
:10268000C860206805F090FB8046206805F073FB69
:102690000746B8F1000F3BD1D7BB207DE16A00E0CF
:1026A00050E041EA80352068C06844F20301884365
:1026B00028432168C86094F83800012817D1606A5F
:1026C00008B1A06A00B900BFA08F401E012141EAF5
:1026D0000041206C0843616C0843A16C08432168E9
:1026E0000969264A114008432168086105E020680D
:1026F000006920F00100216808612068006920F06D
:102700007040616B0843216808612046FEF7D2F9EA
:10271000E068012809D12068006B20F00F00A16952
:10272000491E08432168086305E02068006B20F01B
:102730000F0021680863606D20F0020040F0010086
:10274000606505E0606D40F0100060654FF00109C4
:102750004846D8E6C0FFFF5FC0FFFF7F540000245B
:10276000400D0300002002400021024000230240EF
:10277000006302580060025803C0F0FF1EF800FC1E
:1027800010B586B00446142101A8FDF7DBFD4549CC
:10279000206888424ED144480068401C4249086085
:1027A0000846006801280DD100BF4048006840F08D
:1027B00020003E4908600846006800F020000090B4
:1027C00000BF00BF00BF39480830006840F0020079
:1027D0003649083108600846006800F002000090A1
:1027E00000BF00BF02200190032002900020039050
:1027F00001A92F4801F0B0FE2E482F49086009209A
:10280000486000212C488160C1604FF48061016103
:1028100089004161890081610021C16101624162D9
:1028200001F006FA08B1FFF776FA00BF2248E0642B
:10283000846334E021492068884230D11A48006816
:10284000401C194908600846006801280DD100BFE6
:102850001648006840F020001449086008460068E7
:1028600000F02000009000BF00BF00BF0F480830FC
:10287000006840F004000D4908310860084600680F
:1028800000F00400009000BF00BF10200190032062
:1028900002900020039001A9094801F05DFE06B0F6
:1028A00010BD00000020024044000024D84402581B
:1028B0000004025810000240E45C002400210240A1
:1028C000000802582DE9F041044601F055FF80460A
:1028D00014B90120BDE8F08194F83500022808D031
:1028E0008020606500BF002084F8340000BF012014
:1028F000F0E7FE492068884249D0FC491831206839
:10290000884244D0F9493031206888423FD0F749A5
:102910004831206888423AD0F449603120688842C2
:1029200035D0F24978312068884230D0EF49903173
:10293000206888422BD0ED49A8312068884226D0F3
:10294000EB492068884222D0E94918312068884242
:102950001DD0E74930312068884218D0E449483119
:102960002068884213D0E2496031206888420ED046
:10297000DF4978312068884209D0DD4990312068EC
:10298000884204D0DA49A8312068884201D1012068
:1029900000E0002068B12068006820F01E00216877
:1029A00008602068406920F080002168486125683F
:1029B00006E02068006820F00E00216808602568A5
:1029C000CA492068884270D0C849183120688842B6
:1029D0006BD0C64930312068884266D0C34948313F
:1029E0002068884261D0C1496031206888425CD04B
:1029F000BE4978312068884257D0BC499031206860
:102A0000884252D0B949A831206888424DD0B8498F
:102A10002068884249D0B64918312068884244D09D
:102A2000B3493031206888423FD0B14948312068ED
:102A300088423AD0AE4960312068884235D0AC49EE
:102A400078312068884230D0A94990312068884286
:102A50002BD0A749A8312068884226D0A5492068F4
:102A6000884222D0A3491431206888421DD0A14950
:102A700028312068884218D09E493C31206888421D
:102A800013D09C495031206888420ED09949643156
:102A90002068884209D0974978312068884204D05C
:102AA00094498C312068884201D1012000E0002047
:102AB00028B1206E006820F48070216E08608B4978
:102AC0002068884249D0894918312068884244D01A
:102AD00086493031206888423FD084494831206897
:102AE00088423AD0814960312068884235D07F4998
:102AF00078312068884230D07C4990312068884203
:102B00002BD07A49A8312068884226D0784920689D
:102B1000884222D076491831206888421DD07449F5
:102B200030312068884218D0714948312068884285
:102B300013D06F496031206888420ED06C497831DB
:102B40002068884209D06A4990312068884204D0C0
:102B50006749A8312068884206D12068006820F0C3
:102B600001002168086005E02068006820F001008D
:102B70002168086011E001F0FFFDA0EB08000528C6
:102B80000BD92020606500BF002084F8340000BF0E
:102B9000032084F8350001209CE6286800F001003D
:102BA0000028E8D151492068884249D04F4918315E
:102BB0002068884244D04D493031206888423FD057
:102BC0004A494831206888423AD0484960312068F3
:102BD000884235D0454978312068884230D0434911
:102BE0009031206888422BD04049A8312068884223
:102BF00026D03F492068884222D03D4918312068BC
:102C000088421DD03A4930312068884218D038496E
:102C100048312068884213D03549603120688842A5
:102C20000ED0334978312068884209D0304990313C
:102C30002068884204D02E49A8312068884201D1FA
:102C4000012000E0002040B1A66D94F85C0000F087
:102C50001F013F208840B06007E0A76D94F85C003A
:102C600000F01F01012088407860204920688842D8
:102C700076D01E4918312068884271D01B49303106
:102C8000206888426CD0194948312068884267D052
:102C9000164960312068884262D014497831206832
:102CA00088425DD0114990312068884258D00F4940
:102CB000A8312068884253D00D49206888424FD0FF
:102CC0000B491831206888424AD0094930312068C0
:102CD000884245D0064948312068884240D004499E
:102CE0006031206888423BD0014905E01000024075
:102CF00010040240085402587831206888422FD0CE
:102D00002549206888422BD0234918312068884201
:102D100026D022492068884222D0204914312068D8
:102D200088421DD01D4928312068884218D01B498F
:102D30003C312068884213D01849503120688842BD
:102D40000ED0164964312068884209D01349783181
:102D50002068884204D011498C312068884201D112
:102D6000012000E0002068B1D4E919104860E06E4D
:102D700040B1E06E006820F48070E16E0860D4E934
:102D80001C10486000BF002084F8340000BF012000
:102D900084F8350000209DE5A00402400854025844
:102DA00070B504460CB9012070BD94F835000228B6
:102DB00003D0802060650120F6E7DC492068884266
:102DC00049D0DA4918312068884244D0D749303197
:102DD000206888423FD0D5494831206888423AD09F
:102DE000D24960312068884235D0D0497831206896
:102DF000884230D0CD499031206888422BD0CB49D1
:102E0000A8312068884226D0C9492068884222D04B
:102E1000C7491831206888421DD0C5493031206823
:102E2000884218D0C24948312068884213D0C0492E
:102E30006031206888420ED0BD49783120688842D0
:102E400009D0BB4990312068884204D0B849A831E4
:102E50002068884201D1012000E00020F0B3042066
:102E600084F83500B149206888424BD0AF49183109
:102E70002068884246D0AD4930312068884241D030
:102E8000AA494831206888423CD0A849603120686E
:102E9000884237D0A54978312068884232D0A3498A
:102EA0009031206888422DD0A049A83120688842FE
:102EB00028D09F492068884224D09D491831206835
:102EC00088421FD09A493031206888421AD09849E8
:102ED00048312068884215D0954900E020E06031F3
:102EE000206888420ED0924978312068884209D003
:102EF0008F4990312068884204D08D49A8312068DC
:102F0000884206D12068006820F00100216808602E
:102F100009E12068006820F001002168086002E1F2
:102F20002068006820F00E00216808607F49206852
:102F3000884249D07D4918312068884244D07B4975
:102F40003031206888423FD0784948312068884233
:102F50003AD0764960312068884235D0734978315B
:102F60002068884230D071499031206888422BD047
:102F70006E49A8312068884226D06D492068884271
:102F800022D06B491831206888421DD06849303101
:102F90002068884218D0664948312068884213D09A
:102FA00063496031206888420ED0614978312068D9
:102FB000884209D05E4990312068884204D05C493B
:102FC000A8312068884206D12068006820F00100FE
:102FD0002168086005E02068006820F00100216891
:102FE000086052492068884270D0504918312068E2
:102FF00088426BD04D4930312068884266D04B49B9
:1030000048312068884261D0484960312068884250
:103010005CD0464978312068884257D04349903186
:103020002068884252D04149A831206888424DD05A
:103030003F492068884249D03D491831206888427C
:1030400044D03B493031206888423FD0384948312C
:10305000206888423AD0364960312068884235D0AD
:10306000334978312068884230D031499031206826
:1030700088422BD02E49A8312068884226D02D497D
:103080002068884222D02B491431206888421DD004
:10309000284928312068884218D026493C312068C8
:1030A000884213D023495031206888420ED02149EC
:1030B00064312068884209D01E49783120688842EE
:1030C00004D01C498C312068884201D1012000E0E5
:1030D0000020D8B1206E006820F48070216E086056
:1030E000A56D94F85C0000F01F0101208840686025
:1030F000D4E919104860E06E40B1E06E006820F439
:103100008070E16E0860D4E91C10486000BF0020A8
:1031100084F8340000BF012084F83500206D10B120
:103120002046216D884700203EE600001000024046
:1031300010040240085402582DE9F84F04460020BC
:103140000090FE4800684FF41651B0FBF1FAA66DEE
:10315000D4F858803768D8F80090F9492068884238
:1031600049D0F74918312068884244D0F4493031B9
:10317000206888423FD0F2494831206888423AD0DE
:10318000EF4960312068884235D0ED4978312068B8
:10319000884230D0EA499031206888422BD0E849F3
:1031A000A8312068884226D0E6492068884222D08B
:1031B000E4491831206888421DD0E2493031206846
:1031C000884218D0DF4948312068884213D0DD4951
:1031D0006031206888420ED0DA4978312068884210
:1031E00009D0D84990312068884204D0D549A83107
:1031F0002068884201D1012000E0002000287DD015
:1032000094F85C0000F01F01082088403840002836
:1032100068D0CB492068884249D0C9491831206814
:10322000884244D0C6493031206888423FD0C449E2
:103230004831206888423AD0C149603120688842CC
:1032400035D0BF4978312068884230D0BC499031B0
:10325000206888422BD0BA49A8312068884226D0FD
:10326000B8492068884222D0B6491831206888427F
:103270001DD0B44930312068884218D0B149483156
:103280002068884213D0AF496031206888420ED050
:10329000AC4978312068884209D0AA499031206829
:1032A000884204D0A749A8312068884204D1206808
:1032B000006800F0040003E02068006800F00800E7
:1032C00080B12068006820F004002168086094F84C
:1032D0005C0000F01F0108208840B060606D40F085
:1032E0000100606594F85C0000F01F010120884037
:1032F0003840E8B392492068884200E0B8E24BD0F9
:103300008F4918312068884246D08D493031206875
:10331000884241D08A494831206888423CD0884957
:1033200060312068884237D08549783120688842EA
:1033300032D083499031206888422DD08049A8310D
:103340002068884228D07F492068884224D07D495F
:103350001831206888421FD07A493031206888426D
:103360001AD0784948312068884215D0754900E064
:1033700026E06031206888420ED07249783120689A
:10338000884209D06F4990312068884204D06D4945
:10339000A8312068884204D12068406900F080008C
:1033A00002E020680068002050B194F85C0000F052
:1033B0001F0101208840B060606D40F00200606530
:1033C00094F85C0000F01F01042088403840E8B306
:1033D0005B49206888424BD059491831206888429F
:1033E00046D0574930312068884241D0544948314D
:1033F000206888423CD0524960312068884237D0EA
:103400004F4978312068884232D04D499031206848
:1034100088422DD04A49A8312068884228D049499D
:103420002068884224D047491831206888421FD03C
:1034300044493031206888421AD0424948312068D6
:10344000884215D03F496031206800E024E088427E
:103450000ED03C4978312068884209D039499031F2
:103460002068884204D03749A8312068884204D1B6
:103470002068006800F0020002E020680068002078
:1034800050B194F85C0000F01F0104208840B06047
:10349000606D40F00400606594F85C0000F01F016E
:1034A000102088403840E8B325492068884251D030
:1034B00023491831206888424CD021493031206896
:1034C000884247D01E4948312068884242D01C4972
:1034D0006031206888423DD019497831206888429F
:1034E00038D0174990312068884233D01449A83128
:1034F000206888422ED01349206888422AD011497A
:1035000018312068884225D00E4930312068884221
:1035100020D00C494831206888421BD009496031CD
:10352000206800E04DE0884214D0064978312068D8
:1035300088420FD003499031206805E054000024F0
:103540001000024010040240884203D0FE49206867
:10355000884204D12068006800F0080003E0206879
:10356000006800F0040060B394F85C0000F01F01F4
:1035700010208840B0602068006800F4802080B18E
:103580002068006800F4002028B9206CC8B12046EB
:10359000216C884715E0A06C98B12046A16C884743
:1035A0000FE02068006800F4807028B92068006887
:1035B00020F0080021680860206C10B12046216CC2
:1035C000884794F85C0000F01F01202088403840B4
:1035D00000287DD0DD492068884249D0DB49183178
:1035E0002068884244D0D9493031206888423FD091
:1035F000D6494831206888423AD0D44960312068A1
:10360000884235D0D14978312068884230D0CF49BE
:103610009031206888422BD0CC49A831206888425C
:1036200026D0C949A8392068884221D0C649903996
:10363000206888421CD0C44978392068884217D055
:10364000C14960392068884212D0BF494839206892
:1036500088420DD0BC4930392068884208D0BA4928
:1036600018392068884203D0B7492068884204D1BD
:103670002068006800F0100003E02068006800F097
:10368000020028B394F85C0000F01F01202088405D
:10369000B06094F8350004282DD12068006820F02F
:1036A0001600216808602068406920F080002168C9
:1036B0004861206C08B9A06C28B12068006820F02F
:1036C00008002168086094F85C0000F01F0100E029
:1036D0003FE03F208840B06000BF002084F8340005
:1036E00000BF012084F83500206D10B12046216D07
:1036F0008847BDE8F88F2068006800F4802080B11A
:103700002068006800F4002028B9606C08B32046E7
:10371000616C88471DE0E06BD8B12046E16B8847BB
:1037200017E02068006800F4807068B920680068BD
:1037300020F010002168086000BF002084F83400E9
:1037400000BF012084F83500E06B10B12046E16B2A
:103750008847606D00287DD0606D00F00100E8B3FF
:10376000042084F835007949206888424BD0774995
:1037700018312068884246D0744930312068884228
:1037800041D072494831206888423CD06F4960314D
:103790002068884237D06D4978312068884232D01D
:1037A0006A499031206888422DD06849A831206844
:1037B000884228D06449A8392068884223D06249C9
:1037C0009039206888421ED05F4978392068884245
:1037D00019D05D4960392068884200E041E012D08C
:1037E00059494839206888420DD0574930392068F6
:1037F000884208D0544918392068884203D0524979
:103800002068884206D12068006820F00100216805
:10381000086005E02068006820F001002168086069
:1038200000BF0098401C0090504500D905E020687A
:10383000006800F001000028F3D100BF00BF0020A5
:1038400084F8340000BF2068006800F0010028B14F
:10385000032000E00BE084F8350002E0012084F84A
:103860003500E06C002802D02046E16C8847D9E1A1
:1038700037492068884222D035491431206888426F
:103880001DD0334928312068884218D030493C3156
:103890002068884213D02E495031206888420ED0CB
:1038A0002B4964312068884209D029497831206841
:1038B000884204D026498C312068884201D10120F9
:1038C00000E000200028D2D02068056894F85C0051
:1038D00000F01F010420884000EA0900D0B305F081
:1038E0000400B8B394F85C0000F01F010420884085
:1038F000C8F8040005F4004080B105F4803030B908
:10390000A06C0028B3D02046A16C88478AE1206CC7
:103910000028ACD02046216C884783E105F02000C8
:10392000F0BB0A492068884252D008491831206803
:1039300088424DD0054930312068884248D003493B
:1039400048312068884206E0B80402401000024076
:10395000085402584FE03BD0B3492068884237D022
:10396000B14918312068884232D0AF4930312068DF
:1039700088422DD0AC4948312068884228D0AB49D4
:103980002068884224D0A9491831206888421FD075
:10399000A6493031206888421AD0A449483100E055
:1039A00023E02068884213D0A04960312068884213
:1039B0000ED09E4978312068884209D09B499031C9
:1039C0002068884204D09949A8312068884206D1ED
:1039D0002068006820F008002168086005E0206881
:1039E000006820F0040021680860206C10B32046B5
:1039F000216C884716E194F85C0000F01F0102205A
:103A0000884000EA0900E8B305F00200D0B394F85A
:103A10005C0000F01F0102208840C8F8040005F493
:103A2000004070B105F4803028B9606C10B12046B8
:103A3000616C8847F6E0E06BF0B32046E16B8847A5
:103A4000F0E005F02000C0BB77496039206888426B
:103A50004DD0754948392068884248D0724930397C
:103A60002068884243D070491839206888423ED087
:103A70006D49206888423AD06B49183120688842E5
:103A800035D000E04EE068493031206888422ED0C1
:103A9000654948312068884229D0644920688842B5
:103AA00025D0624918312068884220D05F493031E2
:103AB000206888421BD001E06EE02DE05B49483170
:103AC0002068884213D059496031206888420ED05E
:103AD000564978312068884209D05449903120688D
:103AE000884204D05149A8312068884206D1206814
:103AF000006820F014002168086005E02068006874
:103B000020F00A002168086000BF002084F834001B
:103B100000BF012084F83500E06BE8B32046E16B7C
:103B200088477FE094F85C0000F01F01082088407F
:103B300000EA090080B305F0080068B33A4960392B
:103B4000206888424AD0384948392068884245D0A0
:103B5000354930392068884240D0334918392068C7
:103B600088423BD030492068884237D02E491831EE
:103B70002068884232D02C493031206888422DD0CC
:103B8000294948312068884228D02849206888423D
:103B900024D02649183100E044E0206888421DD036
:103BA000224930312068884218D0204948312068A5
:103BB000884213D01D496031206888420ED01B49CD
:103BC00078312068884209D01849903120688842AD
:103BD00004D01649A8312068884206D120680068C0
:103BE00020F01C002168086005E02068006820F0D3
:103BF0000E002168086094F85C0000F01F010120AD
:103C00008840C8F804000120606500BF002084F8E7
:103C1000340000BF012084F83500E06C10B120466C
:103C2000E16C884700BF64E5700002401004024068
:103C30002DE9F041044600F09FFD804614B90120B3
:103C4000BDE8F081FE492068884249D0FC4918311E
:103C50002068884244D0FA493031206888423FD0F9
:103C6000F7494831206888423AD0F54960312068E8
:103C7000884235D0F24978312068884230D0F04906
:103C80009031206888422BD0ED49A83120688842C5
:103C900026D0EC492068884222D0EA4918312068B1
:103CA00088421DD0E74930312068884218D0E54964
:103CB00048312068884213D0E24960312068884248
:103CC0000ED0E04978312068884209D0DD49903132
:103CD0002068884204D0DB49A8312068884201D19D
:103CE000012000E00020002873D0606A00B100BF0E
:103CF00000BF002084F8340000BF022084F83500A3
:103D0000CF492068884249D0CD491831206888427F
:103D100044D0CB493031206888423FD0C84948312F
:103D2000206888423AD0C64960312068884235D040
:103D3000C34978312068884230D0C1499031206829
:103D400088422BD0BE49A8312068884226D0BD4980
:103D50002068884222D0BB491831206888421DD093
:103D6000B84930312068884218D0B64948312068B7
:103D7000884213D0B3496031206888420ED0B149DF
:103D800078312068884209D0AE4990312068884255
:103D900004D0AC49A8312068884206D12068006868
:103DA00020F001002168086005E02068006820F02C
:103DB0000100216808600DE000F0DEFCA0EB0800C7
:103DC000052807D920206065032084F835000120EC
:103DD00036E76AE02068006800F001000028EBD1B7
:103DE0002068056898480540D4E902010843216924
:103DF000084361690843A1690843E1690843216AEE
:103E000008430543606A042803D1D4E90B01084341
:103E100005438E4800686FF30F00B0F1005F1DD3BB
:103E20006068292802D360682E2811D960683F286D
:103E300002D3606842280BD96068472802D36068C3
:103E4000482805D960684F2804D36068522801D8F3
:103E5000012000E0002008B145F4801520680560CD
:103E60002068456925F00705606A0543606A0428F3
:103E70000DD1A06A0543E06A48B12046FDF7B8FDC0
:103E800028B140206065012084F83500D8E620681C
:103E900045612046FDF788FC064694F85C0000F07A
:103EA0001F013F208840B0609EE069492068884239
:103EB00022D067491431206888421DD064492831D6
:103EC0002068884218D062493C312068884213D06B
:103ED0005F495031206888420ED05D4964312068C6
:103EE000884209D05A4978312068884204D058491C
:103EF0008C312068884201D1012000E00020E0B32D
:103F000053492068884222D05149143120688842A0
:103F10001DD04F4928312068884218D04C493C3187
:103F20002068884213D04A495031206888420ED018
:103F3000474964312068884209D045497831206872
:103F4000884204D042498C312068884201D1012046
:103F500000E0002000B100BF00BF002084F8340062
:103F600000BF022084F83500206805683948054004
:103F7000A068402802D1102106E02EE0A068802829
:103F800001D1C10100E00021E06841EAD0012069CF
:103F900041EAD001606941EAD001A06941EAD0015B
:103FA000E06941EAD001206A41EA10100543206827
:103FB000056027492068401A1421B0FBF1F0800009
:103FC000E0652046FDF7F0FB074694F85C0000F042
:103FD0001F0101208840786006E0402060650320D2
:103FE00084F8350001202BE61549206888427FD0EF
:103FF00013491831206888427AD01149303120683D
:10400000884275D00E4948312068884270D00C49EA
:104010006031206888426BD0094978312068884235
:1040200066D0074990312068884261D00449A831A0
:10403000206888425CD003492068884258D00BE051
:1040400010000240100402403F8010FE0010005C8F
:10405000085402580F00FEFF3B491831206888427F
:1040600046D0394930312068884241D036494831FC
:10407000206888423CD0344960312068884237D07B
:10408000314978312068884232D02F4990312068F8
:1040900088422DD02C49A8312068884228D02B494D
:1040A0002068884224D029491431206888421FD0D2
:1040B00026492831206888421AD024493C3120689A
:1040C000884215D0214950312068884210D01F49BC
:1040D0006431206888420BD01C49783120688842BE
:1040E00006D01A498C312068884200E000E001D1F6
:1040F000012000E0002000B32046FDF7CBFBA068C4
:10410000802801D1002060602079216E0860D4E908
:1041100019104860606860B16068082809D82046B6
:10412000FDF71AFC0020E16E0860D4E91C1048601D
:1041300003E00020E06620676067002060650120E2
:1041400084F8350000207BE5100402400854025832
:104150002DE9F04104460D4616461F464FF0000873
:1041600014B90120BDE8F08100BF94F834000128A3
:1041700001D10220F6E7012084F8340000BF94F852
:10418000350001287ED1022084F8350000206065CA
:10419000E4492068884249D0E249183120688842C1
:1041A00044D0E0493031206888423FD0DD49483171
:1041B000206888423AD0DB4960312068884235D097
:1041C000D84978312068884230D0D649903120686B
:1041D00088422BD0D349A8312068884226D0D249C2
:1041E0002068884222D0D0491831206888421DD0EA
:1041F000CD4930312068884218D0CB4948312068F9
:10420000884213D0C8496031206888420ED0C64920
:1042100078312068884209D0C349903120688842AB
:1042200004D0C149A8312068884206D120680068BE
:1042300020F001002168086005E02068006820F097
:104240000100216808603B46324629462046FDF7BA
:1042500027FCB449206888424BD0B2491831206805
:10426000884246D0AF4930312068884241D0AD49BC
:104270004831206888423CD0AA4960312068884291
:1042800037D000E042E1A74978312068884230D039
:10429000A4499031206888422BD0A249A8312068D7
:1042A000884226D0A0492068884222D09E491831F1
:1042B000206888421DD09C4930312068884218D03F
:1042C000994948312068884213D097496031206865
:1042D00088420ED0944978312068884209D09249AA
:1042E00090312068884204D08F49A83120688842E4
:1042F00001D1012000E0002080B12068006820F09A
:104300001E0040F0160021680860206CB0B12068E3
:10431000006840F00800216808600FE0206800682D
:1043200020F00E0040F00A0021680860206C28B1DF
:104330002068006840F0040021680860794920681E
:10434000884270D077491831206888426BD075490F
:1043500030312068884266D07249483120688842EE
:1043600061D070496031206888425CD06D497831F5
:104370002068884257D06B4990312068884252D0DB
:104380006849A831206888424DD067492068884232
:1043900049D0654918312068884244D0624930319B
:1043A000206888423FD060494831206888423AD02E
:1043B0005D4960312068884235D05B49783120689A
:1043C000884230D058499031206888422BD05649D5
:1043D000A8312068884226D054492068884222D0DB
:1043E00052491431206888421DD050492831206834
:1043F000884218D04D493C312068884213D04B493F
:104400005031206888420ED0484964312068884283
:1044100009D0464978312068884204D043498C311C
:104420002068884201D1012000E0002090B1206E78
:10443000006800F4803028B1206E006840F480707D
:10444000216E0860E06E28B1E06E006840F4807074
:10445000E16E086033492068884249D031491831FB
:104460002068884244D02F493031206888423FD0AC
:104470002C494831206888423AD02A496031206866
:10448000884235D0274978312068884230D0254984
:104490009031206888422BD02249A8312068884278
:1044A00026D021492068884222D01F49183120682F
:1044B00088421DD01C4930312068884218D01A49E2
:1044C00048312068884213D01749603120688842FB
:1044D0000ED0154978312068884209D012499031B0
:1044E0002068884204D01049A8312068884206D14B
:1044F0002068006840F001002168086010E0206832
:10450000006840F001002168086009E000BF002059
:1045100084F8340000BF4FF4006060654FF001087C
:1045200040461FE6100002401004024008540258A2
:1045300070B5044600F020F906462546681C10B107
:1045400004480078054400BF00F016F9801BA8421B
:10455000FAD370BD50000024F8B502460023734D15
:10456000DEE001279F400E6806EA0704002C71D0A8
:104570004E68012E08D04E68022E05D04E68112ECE
:1045800002D04E68122E13D190685F000326BE4001
:10459000B0435F00CE68BE40304390605068012653
:1045A0009E40B0430E79C6F300169E4030435060E3
:1045B000D0685F000326BE40B0435F008E68BE40F7
:1045C0003043D0604E68022E02D04E68122E13D1B6
:1045D000DF0802F1200656F827005E07F70E0F26C7
:1045E000BE40B0435F07FF0E0E69BE403043DF0898
:1045F00002F1200646F8270010685F000326BE403F
:10460000B0430E7906F003065F00BE4030431060F1
:104610004E6806F08056B6F1805F1BD100BF444E55
:10462000366846F00206424F3E603E46366806F067
:104630000206009600BF00BF3E4E9F0856F82700B6
:104640009E07370F0F26BE40B0433B4EB24202D109
:1046500000262EE063E0394EB24201D1012628E067
:10466000374EB24201D1022623E0364EB24201D18A
:1046700003261EE0344EB24201D1042619E0334E27
:10468000B24201D1052614E0314EB24201D10626D4
:104690000FE0304EB24201D107260AE02E4EB24260
:1046A00001D1082605E02D4EB24201D1092600E0D5
:1046B0000A269F073F0FBE4030431E4E9F0846F814
:1046C00027002868A0434E6806F48036B6F5803F80
:1046D00000D1204328606868A0434E6806F4003685
:1046E000B6F5003F00D1204368604FF0B046306817
:1046F000A0434E6806F48016B6F5801F00D1204313
:104700004FF0B04630607068A0434E6806F4001663
:10471000B6F5001F00D120434FF0B04670605B1C1F
:104720000E68DE40002E7FF41CAFF8BD80000058FC
:10473000F4440258080400580000025800040258CB
:1047400000080258000C02580010025800140258C9
:1047500000180258001C0258002002580024025879
:104760000AB1816101E00B04836170470148006870
:10477000000C70470010005C0148006870470000A2
:1047800048000024034800680349097808440149A7
:1047900008607047480000245000002410B5032032
:1047A00000F0D2F801F0A4FF10490968C1F3032119
:1047B0000F4A515C01F01F0120FA01F40B48006818
:1047C00000F00F001146085C00F01F0024FA00F012
:1047D0000849086008480460002000F00FF808B19C
:1047E000012010BD00F036F80020FAE71844025806
:1047F000C6B70008580000245400002470B50446D1
:104800001148007808B9012070BD0F4800784FF4B6
:104810007A71B1FBF0F00D490968B1FBF0F528465B
:1048200002F082FC08B10120EEE7102C07D2002232
:104830002146501E00F04AF80548046001E00120BE
:10484000E2E70020E0E700005000002454000024CC
:104850004C00002408B500BF1148006840F0020079
:104860000F4908600846006800F00200009000BF91
:1048700000BF052000F068F800BF0948006840F458
:104880000040074908600846006800F400400090B6
:1048900000BF00BF02F034FC022002F03BFC08BD68
:1048A000F44402580146084600280DDB00BF00BF53
:1048B00000F01F0301229A4043099B0003F1E0230B
:1048C000C3F8002100BF00BF00BF70472DE9F05FB3
:1048D00080460D46164604F033FE074639462A4602
:1048E000334601F00700C0F1070ABAF1040F02D9FC
:1048F0004FF0040A01E0C0F1070AD14600F1040AB2
:10490000BAF1070F02D24FF0000A01E0A0F1030A4A
:10491000D4464FF0010A0AFA09FAAAF1010A0AEA92
:10492000020A0AFA0CFA4FF0010B0BFA0CFBABF17E
:10493000010B0BEA030B4AEA0B042146404604F044
:1049400007FEBDE8F09F000000BF00F00702064B25
:1049500019684FF6FF031940044B0B4343EA022149
:10496000014B196000BF70470CED00E00000FA0534
:1049700070B5044615480068C0F3800048B9134874
:10498000006800F00700A04201D0012070BD0020A7
:10499000FCE70E48006820F0070020430B49086040
:1049A000FFF7EAFE054607E0FFF7E6FE401BB0F51D
:1049B0007A7F01D90120E9E7044808380068C0F38C
:1049C00040300028F0D00020E0E700000C480258FA
:1049D00010B501F043FE05490968C1F30211044A0C
:1049E000515C01F01F01C84010BD00002044025876
:1049F000C6B7000870B50146844D2D6805F0030365
:104A0000824D2D68C5F30510804D2D1D2D6805F0D4
:104A100001047E4D0C352D68C5F3CC0515FB04F55E
:104A200001EE105AB8EE411AF0EE410A00286FD09C
:104A300023B1012B4ED0022B6BD16BE0734D283D7F
:104A40002D68C5F340153DB3704D283D2D68C5F365
:104A5000C1066F4D25FA06F201EE102AF8EE411A52
:104A600001EE100AB8EE411A81EE812A9FED691A13
:104A7000C0EE811A654D08352D68C5F3080501EEB5
:104A8000105AB8EE411A31EE811AF7EE001A31EEE3
:104A9000211A22EE010A1CE001EE100AB8EE411ABA
:104AA000DFED5D1A81EE812A9FED5A1AC0EE811A60
:104AB000564D08352D68C5F3080501EE105AB8EEBD
:104AC000411A31EE811AF7EE001A31EE211A22EE68
:104AD000010A5BE001EE100AB8EE411ADFED4F1A51
:104AE00081EE812A9FED4B1AC0EE811A474D0835A1
:104AF0002D68C5F3080501EE105AB8EE411A31EEE3
:104B0000811AF7EE001A31EE211A22EE010A3DE079
:104B100077E01DE001EE100AB8EE411A9FED402A41
:104B2000C2EE011A9FED3B1A80EE812A374D0835FF
:104B30002D68C5F3080501EE105AB8EE411A32EEA1
:104B4000011AB7EE002A31EE021A21EE810A1DE0A9
:104B500001EE100AB8EE411ADFED2F1A81EE812A1C
:104B60009FED2C1AC0EE811A284D08352D68C5F32B
:104B7000080501EE105AB8EE411A31EE811AF7EE2F
:104B8000001A31EE211A22EE010A00BF00BF1F4DAC
:104B900008352D68C5F3462501EE105AB8EE411AC6
:104BA000F7EE001A31EE211AC0EE011ABCEEE11A3E
:104BB00081ED001A154D08352D68C5F3064501EE47
:104BC000105AB8EE411AF7EE001A31EE211AC0EE73
:104BD000011ABCEEE11A81ED011A0C4D08352D6861
:104BE000C5F3066501EE105AB8EE411AF7EE001A49
:104BF00031EE211AC0EE011ABCEEE11A81ED021A63
:104C000003E000250D604D608D6070BD28440258A2
:104C10000090D003000000460024744C0024744A25
:104C200020BCBE4B70B50146844D2D6805F00303D2
:104C3000824D2D68C5F30530804D2D1D2D68C5F3BF
:104C400000147E4D14352D68C5F3CC0515FB04F515
:104C500001EE105AB8EE411AF0EE410A00286FD06A
:104C600023B1012B4ED0022B6BD16BE0734D283D4D
:104C70002D68C5F340153DB3704D283D2D68C5F333
:104C8000C1066F4D25FA06F201EE102AF8EE411A20
:104C900001EE100AB8EE411A81EE812A9FED691AE1
:104CA000C0EE811A654D10352D68C5F3080501EE7B
:104CB000105AB8EE411A31EE811AF7EE001A31EEB1
:104CC000211A22EE010A1CE001EE100AB8EE411A88
:104CD000DFED5D1A81EE812A9FED5A1AC0EE811A2E
:104CE000564D10352D68C5F3080501EE105AB8EE83
:104CF000411A31EE811AF7EE001A31EE211A22EE36
:104D0000010A5BE001EE100AB8EE411ADFED4F1A1E
:104D100081EE812A9FED4B1AC0EE811A474D103566
:104D20002D68C5F3080501EE105AB8EE411A31EEB0
:104D3000811AF7EE001A31EE211A22EE010A3DE047
:104D400077E01DE001EE100AB8EE411A9FED402A0F
:104D5000C2EE011A9FED3B1A80EE812A374D1035C5
:104D60002D68C5F3080501EE105AB8EE411A32EE6F
:104D7000011AB7EE002A31EE021A21EE810A1DE077
:104D800001EE100AB8EE411ADFED301A81EE812AE9
:104D90009FED2C1AC0EE811A284D10352D68C5F3F1
:104DA000080501EE105AB8EE411A31EE811AF7EEFD
:104DB000001A31EE211A22EE010A00BF00BF1F4D7A
:104DC00010352D68C5F3462501EE105AB8EE411A8C
:104DD000F7EE001A31EE211AC0EE011ABCEEE11A0C
:104DE00081ED001A154D10352D68C5F3064501EE0D
:104DF000105AB8EE411AF7EE001A31EE211AC0EE41
:104E0000011ABCEEE11A81ED011A0C4D10352D6826
:104E1000C5F3066501EE105AB8EE411AF7EE001A16
:104E200031EE211AC0EE011ABCEEE11A81ED021A30
:104E300003E000250D604D608D6070BD2844025870
:104E40000090D003000000460024744C0024744AF3
:104E500020BCBE4B70B50146844D2D6805F00303A0
:104E6000824D2D68C5F30550804D2D1D2D68C5F36D
:104E700000247E4D1C352D68C5F3CC0515FB04F5CB
:104E800001EE105AB8EE411AF0EE410A00286FD038
:104E900023B1012B4ED0022B6BD16BE0734D283D1B
:104EA0002D68C5F340153DB3704D283D2D68C5F301
:104EB000C1066F4D25FA06F201EE102AF8EE411AEE
:104EC00001EE100AB8EE411A81EE812A9FED691AAF
:104ED000C0EE811A654D18352D68C5F3080501EE41
:104EE000105AB8EE411A31EE811AF7EE001A31EE7F
:104EF000211A22EE010A1CE001EE100AB8EE411A56
:104F0000DFED5D1A81EE812A9FED5A1AC0EE811AFB
:104F1000564D18352D68C5F3080501EE105AB8EE48
:104F2000411A31EE811AF7EE001A31EE211A22EE03
:104F3000010A5BE001EE100AB8EE411ADFED4F1AEC
:104F400081EE812A9FED4B1AC0EE811A474D18352C
:104F50002D68C5F3080501EE105AB8EE411A31EE7E
:104F6000811AF7EE001A31EE211A22EE010A3DE015
:104F700077E01DE001EE100AB8EE411A9FED402ADD
:104F8000C2EE011A9FED3B1A80EE812A374D18358B
:104F90002D68C5F3080501EE105AB8EE411A32EE3D
:104FA000011AB7EE002A31EE021A21EE810A1DE045
:104FB00001EE100AB8EE411ADFED301A81EE812AB7
:104FC0009FED2C1AC0EE811A284D18352D68C5F3B7
:104FD000080501EE105AB8EE411A31EE811AF7EECB
:104FE000001A31EE211A22EE010A00BF00BF1F4D48
:104FF00018352D68C5F3462501EE105AB8EE411A52
:10500000F7EE001A31EE211AC0EE011ABCEEE11AD9
:1050100081ED001A154D18352D68C5F3064501EED2
:10502000105AB8EE411AF7EE001A31EE211AC0EE0E
:10503000011ABCEEE11A81ED011A0C4D18352D68EC
:10504000C5F3066501EE105AB8EE411AF7EE001AE4
:1050500031EE211AC0EE011ABCEEE11A81ED021AFE
:1050600003E000250D604D608D6070BD284402583E
:105070000090D003000000460024744C0024744AC1
:1050800020BCBE4B2DE9F0418AB00646B6F5807FC4
:1050900070D1FE48006800F00708B8F1050F65D22E
:1050A000DFE808F0031221623000F8485038006849
:1050B00000F00070B0F1007F04D107A8FFF79AFC60
:1050C000089C00E0002453E0F0485038006800F0ED
:1050D0000060B0F1006F04D104A8FFF7A3FD049CA9
:1050E00000E0002444E0E9485038006800F0005037
:1050F000B0F1005F04D101A8FFF7ACFE019C00E015
:10510000002435E0E148001F006800F04055DF480A
:105110005038006800F00400042809D145B9DB4884
:1051200050380068C0F3C101D94820FA01F41AE0F0
:10513000D6485038006800F48070B0F5807F04D104
:10514000B5F1805F01D1D34C0DE0D04850380068F4
:1051500000F40030B0F5003F04D1B5F1005F01D19B
:10516000CD4C00E0002403E0CC4C01E0002400BF63
:1051700024E3FFE7B6F5007F7AD1C448006800F465
:10518000E078B8F1800F2CD006DCB8F1000F0AD01F
:10519000B8F1400F69D115E0B8F1C00F63D0B8F590
:1051A000807F62D12CE0B9485038006800F0007070
:1051B000B0F1007F04D107A8FFF71CFC089C00E0B9
:1051C000002454E0B1485038006800F00060B0F1AD
:1051D000006F04D104A8FFF725FD049C00E0002423
:1051E00045E0AA485038006800F00050B0F1005F78
:1051F00004D101A8FFF72EFE019C00E0002436E058
:10520000A248001F006800F04055A04850380068D0
:1052100000F00400042809D145B99C4850380068C2
:10522000C0F3C1019A4820FA01F41BE097485038B6
:10523000006800F48070B0F5807F04D1B5F1805F24
:1052400001D1944C0EE091485038006800F40030D1
:10525000B0F5003F05D1B5F1005F02D18E4C01E001
:1052600006E0002403E08D4C01E0002400BFA5E22D
:10527000B6F5806F7BD185480830006800F460087F
:10528000B8F5800F2CD006DCB8F1000F0AD0B8F5C5
:10529000001F69D115E0B8F5C00F63D0B8F5000F55
:1052A00062D12CE079485038006800F00070B0F10D
:1052B000007F04D107A8FFF79DFB089C00E00024B5
:1052C00054E072485038006800F00060B0F1006FA0
:1052D00004D104A8FFF7A6FC049C00E0002445E0EC
:1052E0006A485038006800F00050B0F1005F04D107
:1052F00001A8FFF7AFFD019C00E0002436E0634801
:10530000001F006800F0405560485038006800F009
:105310000400042809D145B95C4850380068C0F33E
:10532000C1015B4820FA01F41BE05848503800687E
:1053300000F48070B0F5807F04D1B5F1805F01D1B9
:10534000544C0EE051485038006800F40030B0F57D
:10535000003F05D1B5F1005F02D14F4C01E006E0FE
:10536000002403E04D4C01E0002400BF26E2B6F526
:10537000006F7BD145480830006800F0E068B8F164
:10538000007F2CD006DCB8F1000F0AD0B8F1807F86
:1053900069D115E0B8F1407F63D0B8F1806F62D178
:1053A0002CE03A485038006800F00070B0F1007FFF
:1053B00004D107A8FFF71EFB089C00E0002454E07E
:1053C00032485038006800F00060B0F1006F04D13E
:1053D00004A8FFF727FC049C00E0002445E02B48CC
:1053E0005038006800F00050B0F1005F04D101A80F
:1053F000FFF730FD019C00E0002436E02348001F49
:10540000006800F0405521485038006800F0040062
:10541000042809D145B91D4850380068C0F3C101BE
:105420001B4820FA01F41BE018485038006800F4CB
:105430008070B0F5807F04D1B5F1805F01D1154C4B
:105440000EE012485038006800F40030B0F5003F1C
:1054500005D1B5F1005F02D10F4C01E006E0002458
:1054600003E00E4C01E0002400BFA7E1B6F5805F29
:105470007CD10648006800F4E047B7F5005F32D001
:105480000EDCA7B1B7F5805F6DD11EE05044025825
:105490000090D00300093D0040787D010080BB00F2
:1054A000B7F5405F5DD0B7F5804F5CD129E0C548C6
:1054B000006800F00070B0F1007F04D107A8FFF78A
:1054C00099FA089C00E000244FE0BE48006800F014
:1054D0000060B0F1006F04D104A8FFF7A3FB049CA7
:1054E00000E0002441E0B748006800F00050B0F14F
:1054F000005F04D101A8FFF7ADFC019C00E000248F
:1055000033E0B0484C30006800F04055AD480068CA
:1055100000F00400042808D13DB9AA480068C0F38F
:10552000C101A94820FA01F41AE0A648006800F475
:105530008070B0F5807F04D1B5F1805F01D1A34CBC
:105540000EE0A048006800F40030B0F5003F06D13E
:10555000B5F1005F03D19E4C02E007E003E00024B8
:1055600003E09C4C01E0002400BF27E1B6F5002FCA
:1055700059D194485830006800F4403737B1B7F536
:10558000803F11D0B7F5003F4AD11BE08D4800683D
:1055900000F00060B0F1006F04D104A8FFF742FBF7
:1055A000049C00E000243DE08648006800F00050C4
:1055B000B0F1005F04D101A8FFF74CFC039C00E0B0
:1055C00000242FE07F484C30006800F040557D48B3
:1055D000006800F00400042808D13DB9794800684B
:1055E000C0F3C101784820FA01F418E0754800685A
:1055F00000F48070B0F5807F04D1B5F1805F01D1F7
:10560000724C0CE06F48006800F40030B0F5003FC9
:1056100004D1B5F1005F01D16D4C00E0002401E040
:10562000002400BFCAE0B6F5803F28D165484C3061
:10563000006800F480371FB1B7F5803F1CD10DE042
:105640006048006800F00070B0F1007F04D107A846
:10565000FFF7D0F9089C00E000240FE059480068EB
:1056600000F00060B0F1006F04D104A8FFF7DAFA8F
:10567000069C00E0002401E0002400BF9EE0B6F597
:10568000804F60D14F485830006800F0E047B7F1D4
:10569000405F2FD007DC6FB1B7F1805F0ED0B7F15C
:1056A000005F4DD118E0B7F1804F33D0B7F1A04F74
:1056B00046D13AE0FFF78CF9044643E041480068E0
:1056C00000F00060B0F1006F04D104A8FFF7AAFA5F
:1056D000059C00E0002435E03A48006800F00050E6
:1056E000B0F1005F04D101A8FFF7B4FB029C00E019
:1056F000002427E03348006800F00400042807D1A4
:1057000030480068C0F3C1012F4820FA01F400E0DE
:10571000002417E02B48006800F48070B0F5807F0B
:1057200001D12A4C00E000240CE02648006800F477
:105730000030B0F5003F01D1254C00E0002401E02D
:10574000002400BF3AE0B6F5004F36D11D48503076
:10575000006800F0405737B1B7F1805F0ED0B7F165
:10576000005F27D118E01748006800F40030B0F55A
:10577000003F01D1164C00E000241DE011480068F4
:1057800000F00070B0F1007F04D107A8FFF732F9F4
:10579000089C00E000240FE00A48006800F0006068
:1057A000B0F1006F04D104A8FFF73CFA059C00E0BB
:1057B000002401E0002400BF00E0002420460AB0DD
:1057C000BDE8F081004402580090D00300093D007C
:1057D00040787D010080BB002DE9F04104460025A2
:1057E000A846206800F00060B0F1006F30D1606E14
:1057F00048B1B0F5801F0DD0B0F5001F10D0B0F546
:10580000401F15D113E0F948006840F40030F74913
:1058100008600FE00221201D02F03AFC054609E075
:10582000022104F1240002F0E5FC054602E001E05B
:10583000012500BF00BF55B9EC482430006820F4B2
:105840004010616E0843E9492431086000E0A84631
:10585000208800F48070B0F5807F2DD1606D052820
:105860001AD2DFE800F0030A10171800DF480068BA
:1058700040F40030DD49086010E00021201D02F0F6
:1058800007FC05460AE0002104F1240002F0B2FC06
:10589000054603E002E001E0012500BF00BF55B965
:1058A000D2482430006820F00700616D0843CF49DA
:1058B0002431086000E0A846208800F40070B0F5AC
:1058C000007F33D1A06D802817D003DC40B1402881
:1058D0001CD10CE0C02817D0B0F5807F16D114E0A1
:1058E000C248006840F40030C049086010E0002160
:1058F000201D02F0CDFB05460AE0002104F1240042
:1059000002F078FC054603E002E001E0012500BF5B
:1059100000BF55B9B5482430006820F4E070A16D8F
:105920000843B2492431086000E0A846208800F40A
:105930008060B0F5806F38D1D4F8A400B0F5800F46
:1059400019D004DC50B1B0F5001F1DD10DE0B0F549
:10595000C00F17D0B0F5000F16D114E0A3480068AF
:1059600040F40030A149086010E00021201D02F041
:105970008FFB05460AE0002104F1240002F03AFC06
:10598000054603E002E001E0012500BF00BF5DB96C
:1059900096482C30006820F46000D4F8A410084326
:1059A00092492C31086000E0A846208800F400608D
:1059B000B0F5006F38D1D4F8A800B0F1007F19D04D
:1059C00004DC50B1B0F1807F1DD10DE0B0F1407F1B
:1059D00017D0B0F1806F16D114E08448006840F40D
:1059E00000308249086010E00021201D02F050FBC9
:1059F00005460AE0002104F1240002F0FBFB054605
:105A000003E002E001E0012500BF00BF5DB9774877
:105A10002C30006820F0E060D4F8A81008437349E7
:105A20002C31086000E0A846206800F00070B0F15A
:105A3000007F27D1A06CA0B1102804D0202809D065
:105A400030280FD10CE06948006840F40030674905
:105A5000086009E00221201D02F01AFB054603E060
:105A600002E001E0012500BF00BF55B95F482030CA
:105A7000006820F03000A16C08435C4920310860C8
:105A800000E0A846208800F48050B0F5805F36D151
:105A9000E06DB0F5005F19D004DC50B1B0F5805F67
:105AA0001DD10DE0B0F5405F17D0B0F5804F16D195
:105AB00014E04E48006840F400304C49086010E0A3
:105AC0000021201D02F0E4FA05460AE0002104F15D
:105AD000240002F08FFB054603E002E001E001250F
