:020000040800F2
:10000000F828002439030008611B00086D19000856
:100010005D1B0008870400080B1F0008000000009B
:10002000000000000000000000000000671B000846
:100030008B04000800000000651B0008691B000815
:100040005303000853030008530300085303000838
:100050005303000853030008530300085303000828
:100060005303000853030008530300085303000818
:100070005303000853030008530300085303000808
:1000800053030008530300085303000853030008F8
:1000900053030008530300085303000853030008E8
:1000A00053030008451D00085303000853030008CC
:1000B00053030008530300085303000853030008C8
:1000C00053030008530300085303000853030008B8
:1000D00053030008530300085303000853030008A8
:1000E00053030008530300080000000053030008F6
:1000F0005303000853030008530300085303000888
:100100005303000853030008530300085303000877
:100110005303000853030008530300085303000867
:100120005303000853030008530300085303000857
:100130005303000853030008530300085303000847
:1001400000000000000000000000000000000000AF
:100150005303000853030008530300085303000827
:100160005303000853030008530300085303000817
:100170005303000853030008530300085303000807
:1001800053030008530300085303000853030008F7
:1001900053030008530300085303000853030008E7
:1001A00053030008530300085303000853030008D7
:1001B00053030008530300085303000853030008C7
:1001C00053030008530300085303000853030008B7
:1001D00053030008530300085303000853030008A7
:1001E0005303000853030008530300085303000897
:1001F0005303000853030008530300085303000887
:100200005303000853030008530300085303000876
:100210005303000853030008530300085303000866
:1002200053030008530300085303000800000000B4
:1002300053030008530300080000000053030008A4
:100240005303000853030008530300085303000836
:100250005303000853030008530300085303000826
:100260005303000853030008530300085303000816
:100270005303000853030008530300080000000064
:100280005303000853030008530300080000000054
:10029000000000005303000800F002F800F03CF8F2
:1002A0000AA090E8000C82448344AAF10107DA45D1
:1002B00001D100F031F8AFF2090EBAE80F0013F0E7
:1002C000010F18BFFB1A43F001031847541F000029
:1002D000741F0000103A24BF78C878C1FAD85207BA
:1002E00024BF30C830C144BF04680C6070470000B0
:1002F0000023002400250026103A28BF78C1FBD82F
:10030000520728BF30C148BF0B6070471FB501F0CE
:1003100079FF1FBD10B510BD00F058F81146FFF76A
:10032000F5FF01F04BFF00F076F803B4FFF7F2FFA2
:1003300003BC00F07DF800000948804709480047E9
:10034000FEE7FEE7FEE7FEE7FEE7FEE7FEE7FEE785
:10035000FEE7FEE704480549054A064B70470000E2
:10036000411C000899020008F8080024F82800241D
:10037000F8180024F81800244FF0000200B51346C6
:1003800094469646203922BFA0E80C50A0E80C50B5
:10039000B1F12001BFF4F7AF090728BFA0E80C5066
:1003A00048BF0CC05DF804EB890028BF40F8042B5F
:1003B00008BF704748BF20F8022B11F0804F18BFCC
:1003C00000F8012B7047704770477047754600F082
:1003D0002BF8AE4605006946534620F007008546D7
:1003E00018B020B5FFF7B6FFBDE820404FF000067B
:1003F0004FF000074FF000084FF0000B21F007010D
:10040000AC46ACE8C009ACE8C009ACE8C009ACE84F
:10041000C0098D46704710B50446AFF300802046F2
:10042000BDE81040FFF781BF0048704794080024E2
:1004300001491820ABBEFEE726000200704770B5E8
:1004400004460D46A1B2002001F0DAFDA9B2012058
:1004500001F0D6FD70BD70B504460D462146002062
:1004600001F038FE2946012001F034FE70BD70B560
:1004700004460D46A1B2002001F0F0FDA9B2012012
:1004800001F0ECFD70BD00BFFEE7704772B600BF23
:10049000FEE70000F8B502460023734DDEE00127B9
:1004A0009F400E6806EA0704002C71D04E68012EAA
:1004B00008D04E68022E05D04E68112E02D04E682C
:1004C000122E13D190685F000326BE40B0435F0038
:1004D000CE68BE4030439060506801269E40B043D5
:1004E0000E79C6F300169E4030435060D0685F001E
:1004F0000326BE40B0435F008E68BE403043D060EC
:100500004E68022E02D04E68122E13D1DF0802F17F
:10051000200656F827005E07F70E0F26BE40B043B0
:100520005F07FF0E0E69BE403043DF0802F1200670
:1005300046F8270010685F000326BE40B0430E79DE
:1005400006F003065F00BE40304310604E6806F0C0
:100550008056B6F1805F1BD100BF444E366846F02E
:100560000206424F3E603E46366806F0020600969E
:1005700000BF00BF3E4E9F0856F827009E07370F6A
:100580000F26BE40B0433B4EB24202D100262EE0C1
:1005900063E0394EB24201D1012628E0374EB24223
:1005A00001D1022623E0364EB24201D103261EE0DD
:1005B000344EB24201D1042619E0334EB24201D189
:1005C000052614E0314EB24201D106260FE0304E2E
:1005D000B24201D107260AE02E4EB24201D10826CE
:1005E00005E02D4EB24201D1092600E00A269F0700
:1005F0003F0FBE4030431E4E9F0846F82700286834
:10060000A0434E6806F48036B6F5803F00D1204303
:1006100028606868A0434E6806F40036B6F5003FCF
:1006200000D1204368604FF0B0463068A0434E6868
:1006300006F48016B6F5801F00D120434FF0B04677
:1006400030607068A0434E6806F40016B6F5001FCF
:1006500000D120434FF0B04670605B1C0E68DE4056
:10066000002E7FF41CAFF8BD80000058F4440258FF
:1006700008040058000002580004025800080258FC
:10068000000C0258001002580014025800180258BA
:10069000001C025800200258002402580AB181614F
:1006A00001E00B048361704701480068000C70474B
:1006B0000010005C0148006870470000040000243E
:1006C00003480068034909780844014908607047F5
:1006D000040000240C00002410B5032000F0DEF814
:1006E00000F0B0FA10490968C1F303210F4A515CC8
:1006F00001F01F0120FA01F40B48006800F00F0020
:100700001146085C00F01F0024FA00F00849086058
:10071000084804600F2000F00FF808B1012010BD58
:1007200000F036F80020FAE7184402580E220008BC
:10073000140000241000002470B50446114800780D
:1007400008B9012070BD0F4800784FF47A71B1FBF1
:10075000F0F00D490968B1FBF0F5284600F07AFF8A
:1007600008B10120EEE7102C07D200222146501ECE
:1007700000F056F80548046001E00120E2E700209F
:10078000E0E700000C000024100000240800002412
:1007900008B500BF0648006840F002000449086040
:1007A0000846006800F00200009000BF00BF08BDCE
:1007B000F444025810B501460846002817DB00F043
:1007C0001F0301229A400B4B440943F8242000BF29
:1007D00000BF00BFBFF34F8F00BF00BF00BF00BF0F
:1007E00000BF00BFBFF36F8F00BF00BF00BF00BFDF
:1007F00010BD000080E100E00146084600280DDB46
:1008000000BF00BF00F01F0301229A4043099B0074
:1008100003F1E023C3F8002100BF00BF00BF704711
:100820002DE9F05F80460D46164601F0A1FC074613
:1008300039462A46334601F00700C0F1070ABAF1EB
:10084000040F02D94FF0040A01E0C0F1070AD146B3
:1008500000F1040ABAF1070F02D24FF0000A01E0DA
:10086000A0F1030AD4464FF0010A0AFA09FAAAF1E4
:10087000010A0AEA020A0AFA0CFA4FF0010B0BFA13
:100880000CFBABF1010B0BEA030B4AEA0B0421460C
:10089000404601F075FCBDE8F09F000000BF00F08D
:1008A0000702064B19684FF6FF031940044B0B4330
:1008B00043EA0221014B196000BF70470CED00E0D4
:1008C0000000FA0570B5044615480068C0F38000C2
:1008D00048B91348006800F00700A04201D0012089
:1008E00070BD0020FCE70E48006820F007002043A0
:1008F0000B490860FFF7DEFE054607E0FFF7DAFE6A
:10090000401BB0F57A7F01D90120E9E70448083897
:100910000068C0F340300028F0D00020E0E700007D
:100920000C4802582DE9F04104460D4614B9012047
:10093000BDE8F081BD48006800F00F00A8420ED26B
:10094000BA48006820F00F002843B84908600846FC
:10095000006800F00F00A84201D00120E8E72078ED
:1009600000F0040004280ED1B1492069096801F0A3
:100970007001884207D9AE48006820F070002169F4
:100980000843AB490860207800F00800082811D11E
:10099000A749091D6069096801F07001884209D9F9
:1009A000A348001D006820F0700061690843A04959
:1009B000091D0860207800F01000102811D19C4912
:1009C000091DA069096801F4E061884209D99848C5
:1009D000001D006820F4E060A16908439449091DE6
:1009E0000860207800F02000202811D190490831BB
:1009F000E069096801F07001884209D98C48083023
:100A0000006820F07000E1690843894908310860F6
:100A1000207800F0020002280ED18549E0680968BC
:100A200001F00F01884207D98148006820F00F00CB
:100A3000E16808437E490860207800F00100002842
:100A400050D07B48006820F47060A1680843784962
:100A500008606068022807D1754818380068C0F33C
:100A60004040F8B9012063E76068032807D1704867
:100A700018380068C0F34060A0B9012058E76068EA
:100A8000012807D16A4818380068C0F3002048B927
:100A900001204DE7664818380068C0F3800008B9A7
:100AA000012045E762480838006820F007006168C7
:100AB00008435F4908390860FFF7FCFD064608E077
:100AC000FFF7F8FD801B41F28831884201D90320ED
:100AD0002EE757480838006800F038006168B0EB2E
:100AE000C10FEDD1207800F0020002280ED150494C
:100AF000E068096801F00F01884207D24C4800689D
:100B000020F00F00E1680843494908604748006841
:100B100000F00F00A8420ED94448006820F00F00F2
:100B20002843424908600846006800F00F00A842C8
:100B300001D00120FCE6207800F0040004280ED14A
:100B40003B492069096801F07001884207D23848A2
:100B5000006820F07000216908433549086020785A
:100B600000F00800082811D13149091D60690968A1
:100B700001F07001884209D22D48001D006820F064
:100B80007000616908432A49091D0860207800F057
:100B90001000102811D12649091DA069096801F427
:100BA000E061884209D22248001D006820F4E0601C
:100BB000A16908431E49091D0860207800F0200043
:100BC000202811D11A490831E069096801F0700143
:100BD000884209D216480830006820F07000E169A8
:100BE000084313490831086000F02CF810490968DF
:100BF000C1F303210F4A515C01F01F0120FA01F7F4
:100C00000B48006800F00F001146085C00F01F0060
:100C100027FA00F00849086008480760084800689B
:100C2000FFF78AFD8046404682E600000020005221
:100C3000184402580E22000814000024100000245A
:100C400008000024F0B5824E366806F0380636B14A
:100C5000082E15D0102E15D0182E7DD114E07C4E04
:100C6000103E3668C6F3401646B1794E103E3668DF
:100C7000C6F3C107774E26FA07F000E07548E5E0B5
:100C80007548E3E07548E1E0714E1836366806F0C5
:100C900003046F4E18363668C6F305116C4E1C36C9
:100CA000366806F001056A4E24363668C6F3CC066F
:100CB00016FB05F601EE106AB8EE410A002971D064
:100CC00024B1012C50D0022C6DD16DE0604E103E4D
:100CD0003668C6F340163EB35D4E103E3668C6F326
:100CE000C1075C4E26FA07F301EE103AF8EE411AFE
:100CF00001EE101AB8EE411A81EE812A9FED581AC2
:100D0000C0EE011A524E20363668C6F3080601EED0
:100D1000106AB8EE411A31EE811AF7EE001A31EE80
:100D2000211A62EE010A1EE001EE101AB8EE411A15
:100D3000DFED4C1A81EE812A9FED491AC0EE011AAF
:100D4000434E20363668C6F3080601EE106AB8EE48
:100D5000411A31EE811A00E076E0F7EE001A31EE2A
:100D6000211A62EE010A5BE001EE101AB8EE411A98
:100D70009FED3D2AC2EE011A9FED391A80EE012A3D
:100D8000334E20363668C6F3080601EE106AB8EE18
:100D9000411A32EE011AB7EE002A31EE021A61EE64
:100DA000810A3DE04EE01DE001EE101AB8EE411A56
:100DB000DFED2E1A81EE812A9FED291AC0EE011A6D
:100DC000234E20363668C6F3080601EE106AB8EEE8
:100DD000411A31EE811AF7EE001A31EE211A62EE55
:100DE000010A1DE001EE101AB8EE411A9FED1E2A0D
:100DF000C2EE011A9FED1A1A80EE012A144E203617
:100E00003668C6F3080601EE106AB8EE411A32EEF3
:100E1000011AB7EE002A31EE021A61EE810A00BF14
:100E200000BF0B4E20363668C6F34626721C01EE14
:100E3000102AB8EE411AC0EE811ABCEEE11A11EE8A
:100E4000100A00E0002001E0034800BF00BFF0BD31
:100E5000104402580090D00300093D0040787D0105
:100E6000000000460024744C0024744A20BCBE4B91
:100E70002DE9F047044614B90120BDE8F087207839
:100E800000F00100002870D0FE48006800F038082B
:100E9000FC481830D0F80090B8F1100F06D0B8F127
:100EA000180F0FD109F0030002280BD1F5481038B4
:100EB0000068C0F3404000286AD06068002867D10D
:100EC0000120DAE700BF6068B0F5803F08D1ED4847
:100ED0001038006840F48030EA49103908602EE08C
:100EE000606868B9E7481038006820F48030E54948
:100EF000103908600846006820F4802008601EE071
:100F00006068B0F5A02F0DD1DE481038006840F4BD
:100F10008020DC49103908600846006840F48030C1
:100F200008600CE0D7481038006820F48030D549BC
:100F3000103908600846006820F48020086000BF6F
:100F4000606898B1FFF7B6FB054606E0FFF7B2FB15
:100F5000401B642801D903208FE7CA481038006875
:100F6000C0F340400028F1D012E012E0FFF7A2FBEE
:100F7000054606E0FFF79EFB401B642801D90320CD
:100F80007BE7C04810380068C0F340400028F1D12A
:100F900000BF207800F0020002287BD1B948006829
:100FA00000F03808B7481830D0F80090B8F1000FBA
:100FB00005D0B8F1180F3AD109F00300B0BBB14821
:100FC00010380068C0F3800018B1E06808B901204B
:100FD00053E700BFFFF768FB41F20301884219D8CD
:100FE000206940280AD1A7480C38006820F47C30DA
:100FF00040F40030A3490C39086016E0A1480C38D1
:10100000006820F47C30216940EA01309D490C39A8
:1010100008600AE09B480C38006820F0FE40217C04
:1010200040EA016097490C39086067E0FFE7E06833
:1010300088B394481038006820F01900E16808432C
:10104000904910390860FFF735FB054606E0FFF7C9
:1010500031FB401B022801D903200EE789481038D4
:101060000068C0F380000028F1D000BFFFF71CFB30
:1010700041F2030188421BD8206940280CD18148E5
:101080000C38006820F47C3040F400307D490C3985
:10109000086018E033E017E07A480C38006820F464
:1010A0007C30216940EA013076490C3908600AE059
:1010B00074480C38006820F0FE40217C40EA016052
:1010C00070490C39086019E06E481038006820F04B
:1010D00001006C4910390860FFF7ECFA054606E09C
:1010E000FFF7E8FA401B022801D90320C5E665484E
:1010F00010380068C0F380000028F1D100BF2078CC
:1011000000F0100010287CD15E48006800F038081C
:101110005C481830D0F80090B8F1080F06D0B8F14C
:10112000180F3DD109F00300012839D15548103876
:101130000068C0F3002020B1E069802801D00120C0
:101140009BE600BFFFF7B0FA41F2030188421AD8CC
:10115000206A20280AD14B480C38006820F0F8405B
:1011600040F0804047490C39086018E045480C3889
:10117000006820F0F84094F8201040EA816041496E
:101180000C3908600BE03F48001F006820F07C50DD
:1011900094F8201040EA01603A49091F086066E0AF
:1011A000E06978B337481038006840F0800035496E
:1011B00010390860FFF77EFA054606E0FFF77AFA75
:1011C000401B022801D9032057E62E48103800683A
:1011D000C0F300200028F1D000BFFFF765FA41F20C
:1011E000030188421CD8206A20280CD125480C38DD
:1011F000006820F0F84040F0804022490C39086037
:101200001AE035E019E01F480C38006820F0F8407B
:1012100094F8201040EA81601A490C3908600BE00C
:101220001848001F006820F07C5094F8201040EA15
:1012300001601449091F086019E01248103800685D
:1012400020F080000F4910390860FFF733FA054697
:1012500006E0FFF72FFA401B022801D903200CE615
:10126000084810380068C0F300200028F1D100BF02
:10127000207800F00800082834D16069D8B101480E
:10128000643001E010440258006840F00100EF496A
:101290000860FFF70FFA054606E0FFF70BFA401B60
:1012A000022801D90320E8E5E8480068C0F34000BF
:1012B0000028F2D016E0E548006820F00100E3497C
:1012C0000860FFF7F7F9054606E0FFF7F3F9401B62
:1012D000022801D90320D0E5DC480068C0F34000B3
:1012E0000028F2D1207800F02000202836D1A06913
:1012F000D0B1D6487438006840F48050D34974396E
:101300000860FFF7D7F9054606E0FFF7D3F9401B61
:10131000022801D90320B0E5CC4874380068C0F336
:1013200040300028F1D019E0C8487438006820F433
:101330008050C64974390860FFF7BCF9054606E0DD
:10134000FFF7B8F9401B022801D9032095E5BF48F3
:1013500074380068C0F340300028F1D1207800F0E4
:10136000040004287DD1BA48006840F48070B84970
:101370000860FFF79FF9054606E0FFF79BF9401B61
:10138000642801D9032078E5B148006800F4807032
:101390000028F2D000BFA068012808D1AB48001F88
:1013A000006840F00100A949091F08602DE0A0680D
:1013B00068B9A648001F006820F00100A349091F72
:1013C00008600846006820F0040008601DE0A0687E
:1013D00005280DD19D48001F006840F004009B497E
:1013E000091F08600846006840F0010008600CE032
:1013F0009648001F006820F001009449091F08600A
:101400000846006820F00400086000BFA068A0B192
:10141000FFF750F9054608E0FFF74CF9401B41F291
:101420008831884201D9032027E58848001F0068D9
:10143000C0F340000028EFD013E0FFF73BF905466A
:1014400008E0FFF737F9401B41F28831884201D9A3
:10145000032012E57D48001F0068C0F3400000280B
:10146000EFD1606A00287DD078486438006800F0C9
:101470003800182877D0606A022875D1734874380C
:10148000006820F08070714974390860FFF712F924
:10149000054606E0FFF70EF9401B022801D903209C
:1014A000EBE46A4874380068C0F340600028F1D16A
:1014B00000BFD4E90A1041EA001064494C390968B8
:1014C00040F2F3329143084360494C390860208E62
:1014D000401EC0F30800616B491E4FF47E4202EAD1
:1014E00041210843218F491ED20102EA01410843EC
:1014F0003C21095D491E120202EA01610843534979
:101500004439086000BF081F006820F00100091F6F
:1015100008604E48403800684FF6F8718843A16C67
:1015200040EAC100494940390860484848380068E5
:1015300020F00C00216C08434449483908600846F3
:10154000006820F00200616C084340494839086097
:101550000846006840F4803008600846006840F49F
:10156000003002E06FE041E025E0086008460068D6
:1015700040F4802008600846006840F001000860E0
:1015800032487438006840F080703049743908601F
:10159000FFF790F8054606E0FFF78CF8401B02289D
:1015A00001D9032069E4294874380068C0F3406019
:1015B0000028F1D047E025487438006820F080709A
:1015C000224974390860FFF775F8054606E0FFF711
:1015D00071F8401B022801D903204EE41B487438DF
:1015E0000068C0F340600028F1D12CE017484C3867
:1015F0000768164844380668606A012821D007F059
:101600000301A06A81421CD1C7F30511E06A884238
:1016100017D1C6F30801206B401E814211D1606BC7
:10162000401EC6F3462188420BD1A06B401EC6F374
:101630000641884205D1E06B401EC6F30661884230
:1016400001D0012019E4002017E40000744402587E
:101650000048025870B504462546681EB0F1807FE8
:1016600001D301200FE0681E4FF0E02148610F21F7
:101670004FF0FF3000F084FD00204FF0E021886142
:1016800007200861002070BD30B502460B4600BF40
:1016900092F83C00012801D1022030BD012082F8DF
:1016A0003C0000BF022082F83D00106841681068CD
:1016B00084681F4D1068A84203D01E4D1068A842D0
:1016C00003D121F470015868014321F070011868BA
:1016D000014310684160164D1068A84217D0106889
:1016E000B0F1804F13D0144D1068A8420FD0134DA5
:1016F0001068A8420BD0124D1068A84207D00D4DBB
:101700001068A84203D00F4D1068A84205D124F0FC
:1017100080049868044310688460012082F83D00CA
:1017200000BF002082F83C0000BF00BFB5E700000A
:101730000000014000040140000400400008004097
:10174000000C00400018004010B504460CB9012000
:1017500010BD94F83D0028B9002084F83C002046D4
:1017600000F02AF8022084F83D00211D206800F0D6
:1017700027FB012084F8480000BF84F83E000121C7
:101780003F2001554020015541200155422001557F
:101790004320015500BF00BF012084F844004520CC
:1017A0000155462001554720015500BF012084F80E
:1017B0003D000020CCE7000038B504460D49206804
:1017C000884215D100BF0C48006840F001000A496A
:1017D00008600846006800F00100009000BF00BFEC
:1017E000002211461920FFF71BF81920FFF704F813
:1017F00038BD000000000140F0440258014608686E
:10180000C06820F001000A68D06000BF0868006A64
:1018100041F21112104050B90868006A921010404D
:1018200028B90868006820F001000A68106000BF4D
:10183000012081F83D000020704700002DE9F041B3
:1018400004460D4600BF94F83C00012802D1022056
:10185000BDE8F081012084F83C0000BF022084F83C
:101860003D00206886684048064026F47F46206890
:1018700086602868702826D00CDC00F00F01002953
:1018800066D10011072863D2DFE800F0555657589B
:101890004B374100B0F1101F52D009DCB0F5805F2A
:1018A00010D0B0F5005F1BD0B0F5801F50D146E0DE
:1018B000A0F580102038002843D0102842D02028DE
:1018C00046D140E045E0D5E902136A68206800F09F
:1018D000DDFA2068866846F077062068866038E082
:1018E000D5E902136A68206800F0D0FA20688068A1
:1018F00040F48040216888602BE0EA6869682068CD
:1019000000F0DCFA5021206800F0CCFA21E0EA680F
:101910006968206800F0E5FA6021206800F0C2FAEA
:1019200017E0EA686968206800F0C8FA402120687A
:1019300000F0B8FA0DE000BF00BF00BF00BF00BF5D
:1019400000BF00BF00BF2968206800F0ABFA00E0CC
:1019500000BF00BF012084F83D0000BF002084F8D4
:101960003C0000BF00BF73E788FFCEFF00BFFEE76B
:1019700010B5002210210A48FEF790FE022000F068
:1019800013FC012210210648FEF788FE042000F017
:101990000BFC002210210248FEF780FE10BD000063
:1019A0000000025800B587B000BF1448006840F03E
:1019B0000100124908600846006800F0010001902B
:1019C00000BF00BF3E20029001200390032005903D
:1019D00002A90B48FEF75EFD00F032F800F016F8A1
:1019E0000123084A0321184600F092FA0123064A0F
:1019F0000221084600F08CFA07B000BDE04402580E
:101A0000000002581C0000241F00002410B5002212
:101A100020210A48FEF742FE012000F0C5FB01220A
:101A200020210648FEF73AFE1E2000F0BDFB0022F2
:101A300020210248FEF732FE10BD000000000258CF
:101A400010B5012202210C48FEF728FE00220421D5
:101A50000948FEF723FE002208210748FEF71EFE74
:101A6000002210210448FEF719FE0022202102481E
:101A7000FEF714FE10BD00000000025800B587B04C
:101A8000142102A8FEF778FC00BF1648006840F059
:101A90008000144908600846006800F0800001904A
:101AA00000BF00BF00BF0846006840F004000860A7
:101AB0000846006800F00400019000BF00BF00224B
:101AC00001210948FEF7EAFD012002900390002061
:101AD00004900320059002A90348FEF7DBFC07B041
:101AE00000BD0000E04402580008025810B588B05C
:101AF0000446002004900590069007900190029003
:101B000003901448144908600020486000211248DE
:101B10008160C460016141618161FFF715FE08B118
:101B2000FEF7B4FC4FF48050049004A90A48FFF774
:101B300085FE08B1FEF7AAFC0020019002900390F8
:101B400001A90548FFF7A0FD08B1FEF79FFC08B00A
:101B500010BD0000000001404808002400BFFEE75F
:101B600000BFFEE77047704710B5FEF7A9FD10BD36
:101B700000B59DB04C210AA8FEF7FEFB202102A86B
:101B8000FEF7FAFB0220FEF79DFE00BF0020019049
:101B90002948006840F4404027490860084600682A
:101BA00000F4404001902548006840F001002349BE
:101BB00008600846006800F00100019000BF00BF07
:101BC00000BF1D48006800F40050B0F5005FF8D178
:101BD00001200A9000040B9002201390022114911E
:101BE00005211591C0211691022117911891199183
:101BF00008211A9100211B911C910AA8FFF738F9BE
:101C000008B1FEF743FC3F20029003200390002020
:101C1000049008200590402006900790000108904D
:101C200040200990042102A8FEF77CFE08B1FEF7CF
:101C30002DFC1DB000BD0000184802582C040058AF
:101C40003648006840F47000344908603448006841
:101C500000F00F00072806D23148006820F00F007E
:101C6000C01D2F4908602F48006840F001002D4931
:101C7000086000202B49103108602A4800682A4972
:101C80000840284908602648006800F00F0007282F
:101C900006D92348006820F00F00C01D20490860C5
:101CA0000020204918310860091D0860091D0860DE
:101CB0001E481C49283108601D48091D08601D4840
:101CC000091D08600020091D08601A48091D0860E8
:101CD0000020091D08601748091D08600020091D23
:101CE00008601048006820F480200E490860002039
:101CF0000C4960310860104800686FF30F00B0F1C4
:101D0000005F02D201200D49086043F2D2000C4965
:101D100008604803014980390860704788ED00E099
:101D200000200052004402587FEDF6EA0002020251
:101D30000000FF01800201010010005C08810051D9
:101D40000040005210B56FF00100174909680861A2
:101D50004FF4803015490860154800681549164A47
:101D6000128821F812001248006881B21148124A04
:101D7000128820F8121001200C4908600E480088D3
:101D8000401C0D4908800846008858B901200B49BD
:101D900008700020084908800348FFF72FFD1D2028
:101DA000FEF708FD10BD000048080024180802587E
:101DB0001004025834000024020000240000002413
:101DC00010B50268294B98420ED0B0F1804F0BD06D
:101DD000274B984208D0274B984205D0264B984273
:101DE00002D0264B984203D122F070024B681A436E
:101DF0001E4B984217D0B0F1804F14D01C4B984224
:101E000011D01C4B98420ED01B4B98420BD01B4B51
:101E1000984208D01A4B984205D01A4B984202D0EB
:101E2000194B984203D122F44072CB681A4322F036
:101E300080034C6943EA040202608B68C3620B684A
:101E400083620A4B98420BD00C4B984208D00C4B43
:101E5000984205D00B4B984202D00B4B984201D1CF
:101E60000B6903630123436110BD000000000140C2
:101E70000004004000080040000C00400004014045
:101E800000400140004401400048014030B50C468C
:101E9000816821F47F4142EA03252543294381607B
:101EA00030BD00000A468168034B194042F0070329
:101EB00019438160704700008FFFCFFF30B50B469C
:101EC0001446026A056A25F001050562816921F060
:101ED000F00141EA041122F00A021A438161026210
:101EE00030BD30B50B461446056A25F01005056275
:101EF0008169026A21F4704141EA043122F0A002B2
:101F000042EA03128161026230BD00BFFEE70000B9
:101F10002DE9F05F06460F46904699464FF0000ABD
:101F2000D34600250024B246002202213348FEF7A2
:101F3000B5FB00BF1EE0002204213048FEF7AEFBD7
:101F40000AF08000802805D1012208212B48FEF7E5
:101F5000A5FB04E0002208212848FEF79FFB012290
:101F600004212648FEF79AFB4FEA4A604FEA106ABE
:101F7000601CC4B2082CDEDB002204211F48FEF7DF
:101F80008DFB00252BE018F805B000241EE0002290
:101F900004211A48FEF782FB0BF08000802805D14F
:101FA000012208211548FEF779FB04E000220821F0
:101FB0001248FEF773FB012204211048FEF76EFB66
:101FC0004FEA4B604FEA106B601CC4B2082CDEDB9A
:101FD000002204210948FEF761FB681CC5B2BD421E
:101FE000D1DBB9F1010F01D1FFF7C2FC01220221BF
:101FF0000248FEF753FBBDE8F09F000000000258C6
:10200000F8B504460E460020009046F48055E8B22C
:102010008DF8020028128DF8010064B901230D4AE1
:1020200019460020FFF774FF01236A4603210620AA
:10203000FFF76EFF0DE0012C0BD10123064A194674
:102040000020FFF765FF01236A4603210620FFF702
:102050005FFFF8BD1A0000241B00002470B5044681
:102060000D46002600EE105AB8EE400B9FED141BF3
:1020700020EE010BBCEEC00B10EE100A86B2124926
:102080004E703012087064B90023104A01211846BE
:10209000FFF73EFF00230C4A02210520FFF738FF1F
:1020A0000DE0012C0BD10023094A01211846FFF74E
:1020B0002FFF0023044A02210520FFF729FF70BDEE
:1020C0001CD0D2156CC14640240000241A00002404
:1020D0001B000024F8B506460C460020009000EED8
:1020E000104AB8EE400B9FED1C1B20EE011B00EECA
:1020F000104AB8EE400B9FED1A2B02EE001BBCEE0F
:10210000C10B10EE105AE8B28DF80300280A8DF8C2
:102110000200280C8DF80100280E8DF8000066B929
:102120000123114A19460020FFF7F2FE01236A46F7
:1021300004210846FFF7ECFE0DE0012E0BD1012330
:102140000A4A19460020FFF7E3FE03236A460421EA
:102150000846FFF7DDFEF8BD95D626E80B2E214098
:102160003677F4BF5C8B163F1A0000241B00002456
:1021700002480068C0F30220704700000CED00E048
:1021800010B5002804DB0A07130E054A135406E0B5
:102190000A07140E034A00F00F031B1FD45410BD8E
:1021A00000E400E018ED00E000EB4001880000BF13
:1021B000011EA0F10100FBD170470000FFF7F2FB08
:1021C00000210846FEF753F90C490D48FEF743F984
:1021D00040F2FF310846FEF732F9FEF77DFAFFF7CD
:1021E000C7FCFFF74BFC5F20FFF780FC00211E209F
:1021F000FEF73DF9FFF7BCFB00BFFEE720A107009B
:1022000060AE0A004FF04070E1EE100A7047000027
:10221000000001020304010203040607080900008C
:10222000402200080000002434000000D40200080E
:102230007422000834000024C4280000F0020008C2
:10224000000001000000000010000000010000007C
:102250000090D0030090D0031020408000000020A8
:102260000000030200000000000000000000000069
:04227000001000005A
:040000050800029954
:00000001FF
